{
  "contractName": "Gamoly",
  "abi": [
    {
      "inputs": [
        {
          "internalType": "address payable",
          "name": "_admin",
          "type": "address"
        }
      ],
      "stateMutability": "nonpayable",
      "type": "constructor"
    },
    {
      "anonymous": false,
      "inputs": [
        {
          "indexed": true,
          "internalType": "uint256",
          "name": "itemId",
          "type": "uint256"
        },
        {
          "indexed": true,
          "internalType": "address",
          "name": "nftContract",
          "type": "address"
        },
        {
          "indexed": true,
          "internalType": "uint256",
          "name": "nftId",
          "type": "uint256"
        },
        {
          "indexed": false,
          "internalType": "address",
          "name": "seller",
          "type": "address"
        },
        {
          "indexed": false,
          "internalType": "address",
          "name": "admin",
          "type": "address"
        },
        {
          "indexed": false,
          "internalType": "uint256",
          "name": "price",
          "type": "uint256"
        }
      ],
      "name": "MarketItemCreated",
      "type": "event"
    },
    {
      "anonymous": false,
      "inputs": [
        {
          "indexed": false,
          "internalType": "address",
          "name": "from",
          "type": "address"
        },
        {
          "indexed": false,
          "internalType": "uint256",
          "name": "tokenId",
          "type": "uint256"
        }
      ],
      "name": "Message",
      "type": "event"
    },
    {
      "anonymous": false,
      "inputs": [
        {
          "indexed": false,
          "internalType": "string",
          "name": "_name",
          "type": "string"
        }
      ],
      "name": "UserPrint",
      "type": "event"
    },
    {
      "inputs": [
        {
          "internalType": "uint256",
          "name": "",
          "type": "uint256"
        }
      ],
      "name": "NFTlist",
      "outputs": [
        {
          "internalType": "string",
          "name": "name",
          "type": "string"
        },
        {
          "internalType": "string",
          "name": "description",
          "type": "string"
        },
        {
          "internalType": "uint256",
          "name": "itemId",
          "type": "uint256"
        },
        {
          "internalType": "address",
          "name": "nftContract",
          "type": "address"
        },
        {
          "internalType": "uint256",
          "name": "tokenId",
          "type": "uint256"
        },
        {
          "internalType": "address payable",
          "name": "seller",
          "type": "address"
        },
        {
          "internalType": "address payable",
          "name": "admin",
          "type": "address"
        },
        {
          "internalType": "uint256",
          "name": "price",
          "type": "uint256"
        }
      ],
      "stateMutability": "view",
      "type": "function",
      "constant": true
    },
    {
      "inputs": [
        {
          "internalType": "address",
          "name": "",
          "type": "address"
        }
      ],
      "name": "followers",
      "outputs": [
        {
          "components": [
            {
              "internalType": "string",
              "name": "url",
              "type": "string"
            },
            {
              "internalType": "string",
              "name": "title",
              "type": "string"
            },
            {
              "internalType": "string",
              "name": "description",
              "type": "string"
            },
            {
              "internalType": "string",
              "name": "category",
              "type": "string"
            },
            {
              "internalType": "bool",
              "name": "isActive",
              "type": "bool"
            }
          ],
          "internalType": "struct Gamoly.Stream",
          "name": "stream",
          "type": "tuple"
        },
        {
          "internalType": "string",
          "name": "name",
          "type": "string"
        },
        {
          "internalType": "string",
          "name": "avatar",
          "type": "string"
        },
        {
          "internalType": "address",
          "name": "addr",
          "type": "address"
        },
        {
          "internalType": "uint256",
          "name": "index",
          "type": "uint256"
        }
      ],
      "stateMutability": "view",
      "type": "function",
      "constant": true
    },
    {
      "inputs": [
        {
          "internalType": "address",
          "name": "",
          "type": "address"
        }
      ],
      "name": "following",
      "outputs": [
        {
          "components": [
            {
              "internalType": "string",
              "name": "url",
              "type": "string"
            },
            {
              "internalType": "string",
              "name": "title",
              "type": "string"
            },
            {
              "internalType": "string",
              "name": "description",
              "type": "string"
            },
            {
              "internalType": "string",
              "name": "category",
              "type": "string"
            },
            {
              "internalType": "bool",
              "name": "isActive",
              "type": "bool"
            }
          ],
          "internalType": "struct Gamoly.Stream",
          "name": "stream",
          "type": "tuple"
        },
        {
          "internalType": "string",
          "name": "name",
          "type": "string"
        },
        {
          "internalType": "string",
          "name": "avatar",
          "type": "string"
        },
        {
          "internalType": "address",
          "name": "addr",
          "type": "address"
        },
        {
          "internalType": "uint256",
          "name": "index",
          "type": "uint256"
        }
      ],
      "stateMutability": "view",
      "type": "function",
      "constant": true
    },
    {
      "inputs": [],
      "name": "nftCount",
      "outputs": [
        {
          "internalType": "uint256",
          "name": "",
          "type": "uint256"
        }
      ],
      "stateMutability": "view",
      "type": "function",
      "constant": true
    },
    {
      "inputs": [
        {
          "internalType": "address",
          "name": "",
          "type": "address"
        }
      ],
      "name": "users",
      "outputs": [
        {
          "components": [
            {
              "internalType": "string",
              "name": "url",
              "type": "string"
            },
            {
              "internalType": "string",
              "name": "title",
              "type": "string"
            },
            {
              "internalType": "string",
              "name": "description",
              "type": "string"
            },
            {
              "internalType": "string",
              "name": "category",
              "type": "string"
            },
            {
              "internalType": "bool",
              "name": "isActive",
              "type": "bool"
            }
          ],
          "internalType": "struct Gamoly.Stream",
          "name": "stream",
          "type": "tuple"
        },
        {
          "internalType": "string",
          "name": "name",
          "type": "string"
        },
        {
          "internalType": "string",
          "name": "avatar",
          "type": "string"
        },
        {
          "internalType": "address",
          "name": "addr",
          "type": "address"
        },
        {
          "internalType": "uint256",
          "name": "index",
          "type": "uint256"
        }
      ],
      "stateMutability": "view",
      "type": "function",
      "constant": true
    },
    {
      "inputs": [
        {
          "internalType": "address",
          "name": "_address",
          "type": "address"
        }
      ],
      "name": "get",
      "outputs": [
        {
          "components": [
            {
              "components": [
                {
                  "internalType": "string",
                  "name": "url",
                  "type": "string"
                },
                {
                  "internalType": "string",
                  "name": "title",
                  "type": "string"
                },
                {
                  "internalType": "string",
                  "name": "description",
                  "type": "string"
                },
                {
                  "internalType": "string",
                  "name": "category",
                  "type": "string"
                },
                {
                  "internalType": "bool",
                  "name": "isActive",
                  "type": "bool"
                }
              ],
              "internalType": "struct Gamoly.Stream",
              "name": "stream",
              "type": "tuple"
            },
            {
              "internalType": "string",
              "name": "name",
              "type": "string"
            },
            {
              "internalType": "string",
              "name": "avatar",
              "type": "string"
            },
            {
              "internalType": "address",
              "name": "addr",
              "type": "address"
            },
            {
              "internalType": "uint256",
              "name": "index",
              "type": "uint256"
            }
          ],
          "internalType": "struct Gamoly.User",
          "name": "user",
          "type": "tuple"
        }
      ],
      "stateMutability": "view",
      "type": "function",
      "constant": true
    },
    {
      "inputs": [
        {
          "components": [
            {
              "components": [
                {
                  "internalType": "string",
                  "name": "url",
                  "type": "string"
                },
                {
                  "internalType": "string",
                  "name": "title",
                  "type": "string"
                },
                {
                  "internalType": "string",
                  "name": "description",
                  "type": "string"
                },
                {
                  "internalType": "string",
                  "name": "category",
                  "type": "string"
                },
                {
                  "internalType": "bool",
                  "name": "isActive",
                  "type": "bool"
                }
              ],
              "internalType": "struct Gamoly.Stream",
              "name": "stream",
              "type": "tuple"
            },
            {
              "internalType": "string",
              "name": "name",
              "type": "string"
            },
            {
              "internalType": "string",
              "name": "avatar",
              "type": "string"
            },
            {
              "internalType": "address",
              "name": "addr",
              "type": "address"
            },
            {
              "internalType": "uint256",
              "name": "index",
              "type": "uint256"
            }
          ],
          "internalType": "struct Gamoly.User",
          "name": "_user",
          "type": "tuple"
        }
      ],
      "name": "set",
      "outputs": [],
      "stateMutability": "nonpayable",
      "type": "function"
    },
    {
      "inputs": [
        {
          "internalType": "uint256",
          "name": "index",
          "type": "uint256"
        },
        {
          "components": [
            {
              "internalType": "string",
              "name": "url",
              "type": "string"
            },
            {
              "internalType": "string",
              "name": "title",
              "type": "string"
            },
            {
              "internalType": "string",
              "name": "description",
              "type": "string"
            },
            {
              "internalType": "string",
              "name": "category",
              "type": "string"
            },
            {
              "internalType": "bool",
              "name": "isActive",
              "type": "bool"
            }
          ],
          "internalType": "struct Gamoly.Stream",
          "name": "_stream",
          "type": "tuple"
        }
      ],
      "name": "setStream",
      "outputs": [],
      "stateMutability": "nonpayable",
      "type": "function"
    },
    {
      "inputs": [],
      "name": "getLiveUsers",
      "outputs": [
        {
          "components": [
            {
              "components": [
                {
                  "internalType": "string",
                  "name": "url",
                  "type": "string"
                },
                {
                  "internalType": "string",
                  "name": "title",
                  "type": "string"
                },
                {
                  "internalType": "string",
                  "name": "description",
                  "type": "string"
                },
                {
                  "internalType": "string",
                  "name": "category",
                  "type": "string"
                },
                {
                  "internalType": "bool",
                  "name": "isActive",
                  "type": "bool"
                }
              ],
              "internalType": "struct Gamoly.Stream",
              "name": "stream",
              "type": "tuple"
            },
            {
              "internalType": "string",
              "name": "name",
              "type": "string"
            },
            {
              "internalType": "string",
              "name": "avatar",
              "type": "string"
            },
            {
              "internalType": "address",
              "name": "addr",
              "type": "address"
            },
            {
              "internalType": "uint256",
              "name": "index",
              "type": "uint256"
            }
          ],
          "internalType": "struct Gamoly.User[]",
          "name": "user",
          "type": "tuple[]"
        }
      ],
      "stateMutability": "view",
      "type": "function",
      "constant": true
    },
    {
      "inputs": [
        {
          "internalType": "string",
          "name": "name",
          "type": "string"
        },
        {
          "internalType": "string",
          "name": "description",
          "type": "string"
        },
        {
          "internalType": "address",
          "name": "nftContract",
          "type": "address"
        },
        {
          "internalType": "uint256",
          "name": "nftId",
          "type": "uint256"
        },
        {
          "internalType": "uint256",
          "name": "price",
          "type": "uint256"
        }
      ],
      "name": "createNFT",
      "outputs": [],
      "stateMutability": "payable",
      "type": "function",
      "payable": true
    },
    {
      "inputs": [
        {
          "internalType": "address",
          "name": "_admin",
          "type": "address"
        }
      ],
      "name": "getNFT",
      "outputs": [
        {
          "components": [
            {
              "internalType": "string",
              "name": "name",
              "type": "string"
            },
            {
              "internalType": "string",
              "name": "description",
              "type": "string"
            },
            {
              "internalType": "uint256",
              "name": "itemId",
              "type": "uint256"
            },
            {
              "internalType": "address",
              "name": "nftContract",
              "type": "address"
            },
            {
              "internalType": "uint256",
              "name": "tokenId",
              "type": "uint256"
            },
            {
              "internalType": "address payable",
              "name": "seller",
              "type": "address"
            },
            {
              "internalType": "address payable",
              "name": "admin",
              "type": "address"
            },
            {
              "internalType": "uint256",
              "name": "price",
              "type": "uint256"
            }
          ],
          "internalType": "struct Gamoly.NFT",
          "name": "nft",
          "type": "tuple"
        }
      ],
      "stateMutability": "view",
      "type": "function",
      "constant": true
    }
  ],
  "bytecode": "0x60806040523480156200001157600080fd5b50604051620035f0380380620035f083398181016040528101906200003791906200009e565b600160008190555080600760006101000a81548173ffffffffffffffffffffffffffffffffffffffff021916908373ffffffffffffffffffffffffffffffffffffffff1602179055505062000118565b6000815190506200009881620000fe565b92915050565b600060208284031215620000b157600080fd5b6000620000c18482850162000087565b91505092915050565b6000620000d782620000de565b9050919050565b600073ffffffffffffffffffffffffffffffffffffffff82169050919050565b6200010981620000ca565b81146200011557600080fd5b50565b6134c880620001286000396000f3fe60806040526004361061009c5760003560e01c806395fc4f3b1161006457806395fc4f3b146101b45780639af56f5f146101f8578063a87430ba14610221578063c2bc2efc14610262578063d43dabba1461029f578063de6d00e5146102ca5761009c565b80630717e942146100a15780630af2c6ca146100ca578063161a6c1e146100f557806374a5a41b1461013257806395d955e214610173575b600080fd5b3480156100ad57600080fd5b506100c860048036038101906100c391906129b1565b6102e6565b005b3480156100d657600080fd5b506100df6105b8565b6040516100ec91906130e8565b60405180910390f35b34801561010157600080fd5b5061011c600480360381019061011791906128e1565b6105be565b604051610129919061303c565b60405180910390f35b34801561013e57600080fd5b50610159600480360381019061015491906128e1565b61085c565b60405161016a95949392919061305e565b60405180910390f35b34801561017f57600080fd5b5061019a600480360381019061019591906128e1565b610c2f565b6040516101ab95949392919061305e565b60405180910390f35b3480156101c057600080fd5b506101db60048036038101906101d691906129f2565b611002565b6040516101ef989796959493929190612f70565b60405180910390f35b34801561020457600080fd5b5061021f600480360381019061021a9190612a1b565b6111ca565b005b34801561022d57600080fd5b50610248600480360381019061024391906128e1565b611356565b60405161025995949392919061305e565b60405180910390f35b34801561026e57600080fd5b50610289600480360381019061028491906128e1565b611729565b60405161029691906130c6565b60405180910390f35b3480156102ab57600080fd5b506102b4611b7d565b6040516102c19190612f4e565b60405180910390f35b6102e460048036038101906102df919061290a565b61215d565b005b6102f060096124b8565b6102fa60096124ce565b81608001818152505080600160003373ffffffffffffffffffffffffffffffffffffffff1673ffffffffffffffffffffffffffffffffffffffff16815260200190815260200160002060008201518160000160008201518160000190805190602001906103689291906124dc565b5060208201518160010190805190602001906103859291906124dc565b5060408201518160020190805190602001906103a29291906124dc565b5060608201518160030190805190602001906103bf9291906124dc565b5060808201518160040160006101000a81548160ff021916908315150217905550505060208201518160050190805190602001906103fe9291906124dc565b50604082015181600601908051906020019061041b9291906124dc565b5060608201518160070160006101000a81548173ffffffffffffffffffffffffffffffffffffffff021916908373ffffffffffffffffffffffffffffffffffffffff1602179055506080820151816008015590505080600260008360800151815260200190815260200160002060008201518160000160008201518160000190805190602001906104ad9291906124dc565b5060208201518160010190805190602001906104ca9291906124dc565b5060408201518160020190805190602001906104e79291906124dc565b5060608201518160030190805190602001906105049291906124dc565b5060808201518160040160006101000a81548160ff021916908315150217905550505060208201518160050190805190602001906105439291906124dc565b5060408201518160060190805190602001906105609291906124dc565b5060608201518160070160006101000a81548173ffffffffffffffffffffffffffffffffffffffff021916908373ffffffffffffffffffffffffffffffffffffffff1602179055506080820151816008015590505050565b600c5481565b6105c6612562565b600560008373ffffffffffffffffffffffffffffffffffffffff1673ffffffffffffffffffffffffffffffffffffffff16815260200190815260200160002060405180610100016040529081600082018054610621906132b1565b80601f016020809104026020016040519081016040528092919081815260200182805461064d906132b1565b801561069a5780601f1061066f5761010080835404028352916020019161069a565b820191906000526020600020905b81548152906001019060200180831161067d57829003601f168201915b505050505081526020016001820180546106b3906132b1565b80601f01602080910402602001604051908101604052809291908181526020018280546106df906132b1565b801561072c5780601f106107015761010080835404028352916020019161072c565b820191906000526020600020905b81548152906001019060200180831161070f57829003601f168201915b50505050508152602001600282015481526020016003820160009054906101000a900473ffffffffffffffffffffffffffffffffffffffff1673ffffffffffffffffffffffffffffffffffffffff1673ffffffffffffffffffffffffffffffffffffffff168152602001600482015481526020016005820160009054906101000a900473ffffffffffffffffffffffffffffffffffffffff1673ffffffffffffffffffffffffffffffffffffffff1673ffffffffffffffffffffffffffffffffffffffff1681526020016006820160009054906101000a900473ffffffffffffffffffffffffffffffffffffffff1673ffffffffffffffffffffffffffffffffffffffff1673ffffffffffffffffffffffffffffffffffffffff1681526020016007820154815250509050919050565b6004602052806000526040600020600091509050806000016040518060a001604052908160008201805461088f906132b1565b80601f01602080910402602001604051908101604052809291908181526020018280546108bb906132b1565b80156109085780601f106108dd57610100808354040283529160200191610908565b820191906000526020600020905b8154815290600101906020018083116108eb57829003601f168201915b50505050508152602001600182018054610921906132b1565b80601f016020809104026020016040519081016040528092919081815260200182805461094d906132b1565b801561099a5780601f1061096f5761010080835404028352916020019161099a565b820191906000526020600020905b81548152906001019060200180831161097d57829003601f168201915b505050505081526020016002820180546109b3906132b1565b80601f01602080910402602001604051908101604052809291908181526020018280546109df906132b1565b8015610a2c5780601f10610a0157610100808354040283529160200191610a2c565b820191906000526020600020905b815481529060010190602001808311610a0f57829003601f168201915b50505050508152602001600382018054610a45906132b1565b80601f0160208091040260200160405190810160405280929190818152602001828054610a71906132b1565b8015610abe5780601f10610a9357610100808354040283529160200191610abe565b820191906000526020600020905b815481529060010190602001808311610aa157829003601f168201915b505050505081526020016004820160009054906101000a900460ff16151515158152505090806005018054610af2906132b1565b80601f0160208091040260200160405190810160405280929190818152602001828054610b1e906132b1565b8015610b6b5780601f10610b4057610100808354040283529160200191610b6b565b820191906000526020600020905b815481529060010190602001808311610b4e57829003601f168201915b505050505090806006018054610b80906132b1565b80601f0160208091040260200160405190810160405280929190818152602001828054610bac906132b1565b8015610bf95780601f10610bce57610100808354040283529160200191610bf9565b820191906000526020600020905b815481529060010190602001808311610bdc57829003601f168201915b5050505050908060070160009054906101000a900473ffffffffffffffffffffffffffffffffffffffff16908060080154905085565b6003602052806000526040600020600091509050806000016040518060a0016040529081600082018054610c62906132b1565b80601f0160208091040260200160405190810160405280929190818152602001828054610c8e906132b1565b8015610cdb5780601f10610cb057610100808354040283529160200191610cdb565b820191906000526020600020905b815481529060010190602001808311610cbe57829003601f168201915b50505050508152602001600182018054610cf4906132b1565b80601f0160208091040260200160405190810160405280929190818152602001828054610d20906132b1565b8015610d6d5780601f10610d4257610100808354040283529160200191610d6d565b820191906000526020600020905b815481529060010190602001808311610d5057829003601f168201915b50505050508152602001600282018054610d86906132b1565b80601f0160208091040260200160405190810160405280929190818152602001828054610db2906132b1565b8015610dff5780601f10610dd457610100808354040283529160200191610dff565b820191906000526020600020905b815481529060010190602001808311610de257829003601f168201915b50505050508152602001600382018054610e18906132b1565b80601f0160208091040260200160405190810160405280929190818152602001828054610e44906132b1565b8015610e915780601f10610e6657610100808354040283529160200191610e91565b820191906000526020600020905b815481529060010190602001808311610e7457829003601f168201915b505050505081526020016004820160009054906101000a900460ff16151515158152505090806005018054610ec5906132b1565b80601f0160208091040260200160405190810160405280929190818152602001828054610ef1906132b1565b8015610f3e5780601f10610f1357610100808354040283529160200191610f3e565b820191906000526020600020905b815481529060010190602001808311610f2157829003601f168201915b505050505090806006018054610f53906132b1565b80601f0160208091040260200160405190810160405280929190818152602001828054610f7f906132b1565b8015610fcc5780601f10610fa157610100808354040283529160200191610fcc565b820191906000526020600020905b815481529060010190602001808311610faf57829003601f168201915b5050505050908060070160009054906101000a900473ffffffffffffffffffffffffffffffffffffffff16908060080154905085565b600b818154811061101257600080fd5b9060005260206000209060080201600091509050806000018054611035906132b1565b80601f0160208091040260200160405190810160405280929190818152602001828054611061906132b1565b80156110ae5780601f10611083576101008083540402835291602001916110ae565b820191906000526020600020905b81548152906001019060200180831161109157829003601f168201915b5050505050908060010180546110c3906132b1565b80601f01602080910402602001604051908101604052809291908181526020018280546110ef906132b1565b801561113c5780601f106111115761010080835404028352916020019161113c565b820191906000526020600020905b81548152906001019060200180831161111f57829003601f168201915b5050505050908060020154908060030160009054906101000a900473ffffffffffffffffffffffffffffffffffffffff16908060040154908060050160009054906101000a900473ffffffffffffffffffffffffffffffffffffffff16908060060160009054906101000a900473ffffffffffffffffffffffffffffffffffffffff16908060070154905088565b80600160003373ffffffffffffffffffffffffffffffffffffffff1673ffffffffffffffffffffffffffffffffffffffff16815260200190815260200160002060000160008201518160000190805190602001906112299291906124dc565b5060208201518160010190805190602001906112469291906124dc565b5060408201518160020190805190602001906112639291906124dc565b5060608201518160030190805190602001906112809291906124dc565b5060808201518160040160006101000a81548160ff021916908315150217905550905050806002600084815260200190815260200160002060000160008201518160000190805190602001906112d79291906124dc565b5060208201518160010190805190602001906112f49291906124dc565b5060408201518160020190805190602001906113119291906124dc565b50606082015181600301908051906020019061132e9291906124dc565b5060808201518160040160006101000a81548160ff0219169083151502179055509050505050565b6001602052806000526040600020600091509050806000016040518060a0016040529081600082018054611389906132b1565b80601f01602080910402602001604051908101604052809291908181526020018280546113b5906132b1565b80156114025780601f106113d757610100808354040283529160200191611402565b820191906000526020600020905b8154815290600101906020018083116113e557829003601f168201915b5050505050815260200160018201805461141b906132b1565b80601f0160208091040260200160405190810160405280929190818152602001828054611447906132b1565b80156114945780601f1061146957610100808354040283529160200191611494565b820191906000526020600020905b81548152906001019060200180831161147757829003601f168201915b505050505081526020016002820180546114ad906132b1565b80601f01602080910402602001604051908101604052809291908181526020018280546114d9906132b1565b80156115265780601f106114fb57610100808354040283529160200191611526565b820191906000526020600020905b81548152906001019060200180831161150957829003601f168201915b5050505050815260200160038201805461153f906132b1565b80601f016020809104026020016040519081016040528092919081815260200182805461156b906132b1565b80156115b85780601f1061158d576101008083540402835291602001916115b8565b820191906000526020600020905b81548152906001019060200180831161159b57829003601f168201915b505050505081526020016004820160009054906101000a900460ff161515151581525050908060050180546115ec906132b1565b80601f0160208091040260200160405190810160405280929190818152602001828054611618906132b1565b80156116655780601f1061163a57610100808354040283529160200191611665565b820191906000526020600020905b81548152906001019060200180831161164857829003601f168201915b50505050509080600601805461167a906132b1565b80601f01602080910402602001604051908101604052809291908181526020018280546116a6906132b1565b80156116f35780601f106116c8576101008083540402835291602001916116f3565b820191906000526020600020905b8154815290600101906020018083116116d657829003601f168201915b5050505050908060070160009054906101000a900473ffffffffffffffffffffffffffffffffffffffff16908060080154905085565b6117316125e9565b600160008373ffffffffffffffffffffffffffffffffffffffff1673ffffffffffffffffffffffffffffffffffffffff1681526020019081526020016000206040518060a0016040529081600082016040518060a001604052908160008201805461179b906132b1565b80601f01602080910402602001604051908101604052809291908181526020018280546117c7906132b1565b80156118145780601f106117e957610100808354040283529160200191611814565b820191906000526020600020905b8154815290600101906020018083116117f757829003601f168201915b5050505050815260200160018201805461182d906132b1565b80601f0160208091040260200160405190810160405280929190818152602001828054611859906132b1565b80156118a65780601f1061187b576101008083540402835291602001916118a6565b820191906000526020600020905b81548152906001019060200180831161188957829003601f168201915b505050505081526020016002820180546118bf906132b1565b80601f01602080910402602001604051908101604052809291908181526020018280546118eb906132b1565b80156119385780601f1061190d57610100808354040283529160200191611938565b820191906000526020600020905b81548152906001019060200180831161191b57829003601f168201915b50505050508152602001600382018054611951906132b1565b80601f016020809104026020016040519081016040528092919081815260200182805461197d906132b1565b80156119ca5780601f1061199f576101008083540402835291602001916119ca565b820191906000526020600020905b8154815290600101906020018083116119ad57829003601f168201915b505050505081526020016004820160009054906101000a900460ff1615151515815250508152602001600582018054611a02906132b1565b80601f0160208091040260200160405190810160405280929190818152602001828054611a2e906132b1565b8015611a7b5780601f10611a5057610100808354040283529160200191611a7b565b820191906000526020600020905b815481529060010190602001808311611a5e57829003601f168201915b50505050508152602001600682018054611a94906132b1565b80601f0160208091040260200160405190810160405280929190818152602001828054611ac0906132b1565b8015611b0d5780601f10611ae257610100808354040283529160200191611b0d565b820191906000526020600020905b815481529060010190602001808311611af057829003601f168201915b505050505081526020016007820160009054906101000a900473ffffffffffffffffffffffffffffffffffffffff1673ffffffffffffffffffffffffffffffffffffffff1673ffffffffffffffffffffffffffffffffffffffff1681526020016008820154815250509050919050565b60606000611b8b60096124ce565b905060008060005b83811015611bfd576001151560026000600184611bb091906131bf565b815260200190815260200160002060000160040160009054906101000a900460ff1615151415611bea57600183611be791906131bf565b92505b8080611bf590613314565b915050611b93565b5060008267ffffffffffffffff811115611c40577f4e487b7100000000000000000000000000000000000000000000000000000000600052604160045260246000fd5b604051908082528060200260200182016040528015611c7957816020015b611c666125e9565b815260200190600190039081611c5e5790505b50905060005b84811015612152576001151560026000600184611c9c91906131bf565b815260200190815260200160002060000160040160009054906101000a900460ff161515141561213f5760026000600183611cd791906131bf565b81526020019081526020016000206040518060a0016040529081600082016040518060a0016040529081600082018054611d10906132b1565b80601f0160208091040260200160405190810160405280929190818152602001828054611d3c906132b1565b8015611d895780601f10611d5e57610100808354040283529160200191611d89565b820191906000526020600020905b815481529060010190602001808311611d6c57829003601f168201915b50505050508152602001600182018054611da2906132b1565b80601f0160208091040260200160405190810160405280929190818152602001828054611dce906132b1565b8015611e1b5780601f10611df057610100808354040283529160200191611e1b565b820191906000526020600020905b815481529060010190602001808311611dfe57829003601f168201915b50505050508152602001600282018054611e34906132b1565b80601f0160208091040260200160405190810160405280929190818152602001828054611e60906132b1565b8015611ead5780601f10611e8257610100808354040283529160200191611ead565b820191906000526020600020905b815481529060010190602001808311611e9057829003601f168201915b50505050508152602001600382018054611ec6906132b1565b80601f0160208091040260200160405190810160405280929190818152602001828054611ef2906132b1565b8015611f3f5780601f10611f1457610100808354040283529160200191611f3f565b820191906000526020600020905b815481529060010190602001808311611f2257829003601f168201915b505050505081526020016004820160009054906101000a900460ff1615151515815250508152602001600582018054611f77906132b1565b80601f0160208091040260200160405190810160405280929190818152602001828054611fa3906132b1565b8015611ff05780601f10611fc557610100808354040283529160200191611ff0565b820191906000526020600020905b815481529060010190602001808311611fd357829003601f168201915b50505050508152602001600682018054612009906132b1565b80601f0160208091040260200160405190810160405280929190818152602001828054612035906132b1565b80156120825780601f1061205757610100808354040283529160200191612082565b820191906000526020600020905b81548152906001019060200180831161206557829003601f168201915b505050505081526020016007820160009054906101000a900473ffffffffffffffffffffffffffffffffffffffff1673ffffffffffffffffffffffffffffffffffffffff1673ffffffffffffffffffffffffffffffffffffffff168152602001600882015481525050828481518110612124577f4e487b7100000000000000000000000000000000000000000000000000000000600052603260045260246000fd5b602002602001018190525060018361213c91906131bf565b92505b808061214a90613314565b915050611c7f565b508094505050505090565b600760009054906101000a900473ffffffffffffffffffffffffffffffffffffffff1673ffffffffffffffffffffffffffffffffffffffff163373ffffffffffffffffffffffffffffffffffffffff16146121ed576040517f08c379a00000000000000000000000000000000000000000000000000000000081526004016121e49061301c565b60405180910390fd5b60008111612230576040517f08c379a000000000000000000000000000000000000000000000000000000000815260040161222790612ffc565b60405180910390fd5b7fd6896bf6b58a373f3507be627a6c1665b85853a848393258c850171275e5016d3383604051612261929190612f25565b60405180910390a161227360086124b8565b600061227f60086124ce565b90508373ffffffffffffffffffffffffffffffffffffffff166342842e0e3330866040518463ffffffff1660e01b81526004016122be93929190612eee565b600060405180830381600087803b1580156122d857600080fd5b505af11580156122ec573d6000803e3d6000fd5b505050506040518061010001604052808781526020018681526020018281526020018573ffffffffffffffffffffffffffffffffffffffff1681526020018481526020013373ffffffffffffffffffffffffffffffffffffffff168152602001600073ffffffffffffffffffffffffffffffffffffffff1681526020018381525060066000838152602001908152602001600020600082015181600001908051906020019061239c9291906124dc565b5060208201518160010190805190602001906123b99291906124dc565b506040820151816002015560608201518160030160006101000a81548173ffffffffffffffffffffffffffffffffffffffff021916908373ffffffffffffffffffffffffffffffffffffffff1602179055506080820151816004015560a08201518160050160006101000a81548173ffffffffffffffffffffffffffffffffffffffff021916908373ffffffffffffffffffffffffffffffffffffffff16021790555060c08201518160060160006101000a81548173ffffffffffffffffffffffffffffffffffffffff021916908373ffffffffffffffffffffffffffffffffffffffff16021790555060e08201518160070155905050505050505050565b6001816000016000828254019250508190555050565b600081600001549050919050565b8280546124e8906132b1565b90600052602060002090601f01602090048101928261250a5760008555612551565b82601f1061252357805160ff1916838001178555612551565b82800160010185558215612551579182015b82811115612550578251825591602001919060010190612535565b5b50905061255e9190612634565b5090565b604051806101000160405280606081526020016060815260200160008152602001600073ffffffffffffffffffffffffffffffffffffffff16815260200160008152602001600073ffffffffffffffffffffffffffffffffffffffff168152602001600073ffffffffffffffffffffffffffffffffffffffff168152602001600081525090565b6040518060a001604052806125fc612651565b81526020016060815260200160608152602001600073ffffffffffffffffffffffffffffffffffffffff168152602001600081525090565b5b8082111561264d576000816000905550600101612635565b5090565b6040518060a00160405280606081526020016060815260200160608152602001606081526020016000151581525090565b600061269561269084613128565b613103565b9050828152602081018484840111156126ad57600080fd5b6126b884828561326f565b509392505050565b6000813590506126cf8161344d565b92915050565b6000813590506126e481613464565b92915050565b600082601f8301126126fb57600080fd5b813561270b848260208601612682565b91505092915050565b600060a0828403121561272657600080fd5b61273060a0613103565b9050600082013567ffffffffffffffff81111561274c57600080fd5b612758848285016126ea565b600083015250602082013567ffffffffffffffff81111561277857600080fd5b612784848285016126ea565b602083015250604082013567ffffffffffffffff8111156127a457600080fd5b6127b0848285016126ea565b604083015250606082013567ffffffffffffffff8111156127d057600080fd5b6127dc848285016126ea565b60608301525060806127f0848285016126d5565b60808301525092915050565b600060a0828403121561280e57600080fd5b61281860a0613103565b9050600082013567ffffffffffffffff81111561283457600080fd5b61284084828501612714565b600083015250602082013567ffffffffffffffff81111561286057600080fd5b61286c848285016126ea565b602083015250604082013567ffffffffffffffff81111561288c57600080fd5b612898848285016126ea565b60408301525060606128ac848285016126c0565b60608301525060806128c0848285016128cc565b60808301525092915050565b6000813590506128db8161347b565b92915050565b6000602082840312156128f357600080fd5b6000612901848285016126c0565b91505092915050565b600080600080600060a0868803121561292257600080fd5b600086013567ffffffffffffffff81111561293c57600080fd5b612948888289016126ea565b955050602086013567ffffffffffffffff81111561296557600080fd5b612971888289016126ea565b9450506040612982888289016126c0565b9350506060612993888289016128cc565b92505060806129a4888289016128cc565b9150509295509295909350565b6000602082840312156129c357600080fd5b600082013567ffffffffffffffff8111156129dd57600080fd5b6129e9848285016127fc565b91505092915050565b600060208284031215612a0457600080fd5b6000612a12848285016128cc565b91505092915050565b60008060408385031215612a2e57600080fd5b6000612a3c858286016128cc565b925050602083013567ffffffffffffffff811115612a5957600080fd5b612a6585828601612714565b9150509250929050565b6000612a7b8383612dc8565b905092915050565b612a8c81613227565b82525050565b612a9b81613227565b82525050565b612aaa81613215565b82525050565b612ab981613215565b82525050565b6000612aca82613169565b612ad4818561318c565b935083602082028501612ae685613159565b8060005b85811015612b225784840389528151612b038582612a6f565b9450612b0e8361317f565b925060208a01995050600181019050612aea565b50829750879550505050505092915050565b612b3d81613239565b82525050565b6000612b4e82613174565b612b58818561319d565b9350612b6881856020860161327e565b612b71816133ea565b840191505092915050565b6000612b8782613174565b612b9181856131ae565b9350612ba181856020860161327e565b612baa816133ea565b840191505092915050565b6000612bc2601b836131ae565b9150612bcd826133fb565b602082019050919050565b6000612be56013836131ae565b9150612bf082613424565b602082019050919050565b6000610100830160008301518482036000860152612c198282612b43565b91505060208301518482036020860152612c338282612b43565b9150506040830151612c486040860182612ed0565b506060830151612c5b6060860182612aa1565b506080830151612c6e6080860182612ed0565b5060a0830151612c8160a0860182612a83565b5060c0830151612c9460c0860182612a83565b5060e0830151612ca760e0860182612ed0565b508091505092915050565b600060a0830160008301518482036000860152612ccf8282612b43565b91505060208301518482036020860152612ce98282612b43565b91505060408301518482036040860152612d038282612b43565b91505060608301518482036060860152612d1d8282612b43565b9150506080830151612d326080860182612b34565b508091505092915050565b600060a0830160008301518482036000860152612d5a8282612b43565b91505060208301518482036020860152612d748282612b43565b91505060408301518482036040860152612d8e8282612b43565b91505060608301518482036060860152612da88282612b43565b9150506080830151612dbd6080860182612b34565b508091505092915050565b600060a0830160008301518482036000860152612de58282612cb2565b91505060208301518482036020860152612dff8282612b43565b91505060408301518482036040860152612e198282612b43565b9150506060830151612e2e6060860182612aa1565b506080830151612e416080860182612ed0565b508091505092915050565b600060a0830160008301518482036000860152612e698282612cb2565b91505060208301518482036020860152612e838282612b43565b91505060408301518482036040860152612e9d8282612b43565b9150506060830151612eb26060860182612aa1565b506080830151612ec56080860182612ed0565b508091505092915050565b612ed981613265565b82525050565b612ee881613265565b82525050565b6000606082019050612f036000830186612ab0565b612f106020830185612ab0565b612f1d6040830184612edf565b949350505050565b6000604082019050612f3a6000830185612ab0565b612f476020830184612edf565b9392505050565b60006020820190508181036000830152612f688184612abf565b905092915050565b6000610100820190508181036000830152612f8b818b612b7c565b90508181036020830152612f9f818a612b7c565b9050612fae6040830189612edf565b612fbb6060830188612ab0565b612fc86080830187612edf565b612fd560a0830186612a92565b612fe260c0830185612a92565b612fef60e0830184612edf565b9998505050505050505050565b6000602082019050818103600083015261301581612bb5565b9050919050565b6000602082019050818103600083015261303581612bd8565b9050919050565b600060208201905081810360008301526130568184612bfb565b905092915050565b600060a08201905081810360008301526130788188612d3d565b9050818103602083015261308c8187612b7c565b905081810360408301526130a08186612b7c565b90506130af6060830185612ab0565b6130bc6080830184612edf565b9695505050505050565b600060208201905081810360008301526130e08184612e4c565b905092915050565b60006020820190506130fd6000830184612edf565b92915050565b600061310d61311e565b905061311982826132e3565b919050565b6000604051905090565b600067ffffffffffffffff821115613143576131426133bb565b5b61314c826133ea565b9050602081019050919050565b6000819050602082019050919050565b600081519050919050565b600081519050919050565b6000602082019050919050565b600082825260208201905092915050565b600082825260208201905092915050565b600082825260208201905092915050565b60006131ca82613265565b91506131d583613265565b9250827fffffffffffffffffffffffffffffffffffffffffffffffffffffffffffffffff0382111561320a5761320961335d565b5b828201905092915050565b600061322082613245565b9050919050565b600061323282613245565b9050919050565b60008115159050919050565b600073ffffffffffffffffffffffffffffffffffffffff82169050919050565b6000819050919050565b82818337600083830152505050565b60005b8381101561329c578082015181840152602081019050613281565b838111156132ab576000848401525b50505050565b600060028204905060018216806132c957607f821691505b602082108114156132dd576132dc61338c565b5b50919050565b6132ec826133ea565b810181811067ffffffffffffffff8211171561330b5761330a6133bb565b5b80604052505050565b600061331f82613265565b91507fffffffffffffffffffffffffffffffffffffffffffffffffffffffffffffffff8214156133525761335161335d565b5b600182019050919050565b7f4e487b7100000000000000000000000000000000000000000000000000000000600052601160045260246000fd5b7f4e487b7100000000000000000000000000000000000000000000000000000000600052602260045260246000fd5b7f4e487b7100000000000000000000000000000000000000000000000000000000600052604160045260246000fd5b6000601f19601f8301169050919050565b7f50726963652073686f756c642062652061746c65617374203120210000000000600082015250565b7f53656e646572206973206e6f742061646d696e00000000000000000000000000600082015250565b61345681613215565b811461346157600080fd5b50565b61346d81613239565b811461347857600080fd5b50565b61348481613265565b811461348f57600080fd5b5056fea2646970667358221220c790c4c97c81c354ca322911e484d57d2c684521b2bf4d91684ceeb23a1c594864736f6c63430008030033",
  "immutableReferences": {},
  "source": "pragma solidity ^0.8.3;\npragma experimental ABIEncoderV2;\n// SPDX-License-Identifier: MIT\nimport \"@openzeppelin/contracts/utils/Counters.sol\";\nimport \"@openzeppelin/contracts/token/ERC721/extensions/ERC721URIStorage.sol\";\nimport \"@openzeppelin/contracts/security/ReentrancyGuard.sol\";\nimport \"@openzeppelin/contracts/token/ERC721/ERC721.sol\";\n\ncontract Gamoly is ReentrancyGuard {\n    using Counters for Counters.Counter;\n\n    mapping(address => User) public users;\n    mapping(uint256 => User) idToUser;\n    mapping(address => User) public followers;\n    mapping(address => User) public following;\n    mapping(address => NFT) totalNFT;\n    mapping(uint256 => NFT) idToNFT;\n    address payable admin;\n    Counters.Counter private _nftId;\n    Counters.Counter private _userCount;\n    Counters.Counter private _itemsSold;\n\n    constructor(address payable _admin) {\n        admin = _admin;\n    }\n\n    event UserPrint(string _name);\n\n    struct User {\n        Stream stream;\n        string name;\n        string avatar;\n        address addr;\n        uint256 index;\n    }\n\n    struct Stream {\n        string url;\n        string title;\n        string description;\n        string category;\n        bool isActive;\n    }\n\n    function get(address _address) public view returns (User memory user) {\n        return users[_address];\n    }\n\n    function set(User memory _user) public {\n        _userCount.increment();\n        _user.index = _userCount.current();\n        users[msg.sender] = _user;\n        idToUser[_user.index] = _user;\n    }\n\n    function setStream(uint256 index, Stream memory _stream) public {\n        users[msg.sender].stream = _stream;\n        idToUser[index].stream = _stream;\n    }\n\n    function getLiveUsers() public view returns (User[] memory user) {\n        uint256 totalItemCount = _userCount.current();\n        uint256 itemCount = 0;\n        uint256 currentIndex = 0;\n\n        for (uint256 i = 0; i < totalItemCount; i++) {\n            if (idToUser[i + 1].stream.isActive == true) {\n                itemCount += 1;\n            }\n        }\n\n        User[] memory liveUsers = new User[](itemCount);\n        for (uint256 i = 0; i < totalItemCount; i++) {\n            if (idToUser[i + 1].stream.isActive == true) {\n                liveUsers[currentIndex] = idToUser[i + 1];\n                currentIndex += 1;\n            }\n        }\n        return liveUsers;\n    }\n\n    //----Market place contract\n\n    NFT[] public NFTlist;\n\n    event MarketItemCreated(\n        uint256 indexed itemId,\n        address indexed nftContract,\n        uint256 indexed nftId,\n        address seller,\n        address admin,\n        uint256 price\n    );\n\n    uint256 public nftCount;\n\n    struct NFT {\n        string name;\n        string description;\n        uint256 itemId;\n        address nftContract;\n        uint256 tokenId;\n        address payable seller;\n        address payable admin;\n        uint256 price;\n    }\n\n    event Message(address from, uint256 tokenId);\n\n    function createNFT(\n        string memory name,\n        string memory description,\n        address nftContract,\n        uint256 nftId,\n        uint256 price\n    ) public payable {\n        require(msg.sender == admin, \"Sender is not admin\");\n        require(price > 0, \"Price should be atleast 1 !\");\n        emit Message(msg.sender, nftId);\n        _nftId.increment();\n        uint256 itemId = _nftId.current();\n\n        IERC721(nftContract).safeTransferFrom(msg.sender, address(this), nftId);\n\n        idToNFT[itemId] = NFT(\n            name,\n            description,\n            itemId,\n            nftContract,\n            nftId,\n            payable(msg.sender),\n            payable(address(0)),\n            price\n        );\n    }\n\n    //    function sellNFT()\n\n    function getNFT(address _admin) public view returns (NFT memory nft) {\n        return totalNFT[_admin];\n    }\n}\n",
  "sourcePath": "/home/astar/Documents/video-streaming/contracts/Gamoly.sol",
  "compiler": {
    "name": "solc",
    "version": "0.8.3+commit.8d00100c.Emscripten.clang"
  },
  "schemaVersion": "3.4.1",
  "updatedAt": "2022-04-03T05:38:31.989Z",
  "networkType": "ethereum",
  "devdoc": {
    "kind": "dev",
    "methods": {},
    "version": 1
  },
  "userdoc": {
    "kind": "user",
    "methods": {},
    "version": 1
  }
}