{
  "contractName": "Gamoly",
  "abi": [
    {
      "inputs": [
        {
          "internalType": "address payable",
          "name": "_admin",
          "type": "address"
        }
      ],
      "stateMutability": "nonpayable",
      "type": "constructor"
    },
    {
      "anonymous": false,
      "inputs": [
        {
          "indexed": true,
          "internalType": "uint256",
          "name": "itemId",
          "type": "uint256"
        },
        {
          "indexed": true,
          "internalType": "address",
          "name": "nftContract",
          "type": "address"
        },
        {
          "indexed": true,
          "internalType": "uint256",
          "name": "nftId",
          "type": "uint256"
        },
        {
          "indexed": false,
          "internalType": "address",
          "name": "seller",
          "type": "address"
        },
        {
          "indexed": false,
          "internalType": "address",
          "name": "admin",
          "type": "address"
        },
        {
          "indexed": false,
          "internalType": "uint256",
          "name": "price",
          "type": "uint256"
        }
      ],
      "name": "MarketItemCreated",
      "type": "event"
    },
    {
      "anonymous": false,
      "inputs": [
        {
          "indexed": false,
          "internalType": "address",
          "name": "from",
          "type": "address"
        },
        {
          "indexed": false,
          "internalType": "uint256",
          "name": "tokenId",
          "type": "uint256"
        }
      ],
      "name": "Message",
      "type": "event"
    },
    {
      "anonymous": false,
      "inputs": [
        {
          "indexed": false,
          "internalType": "string",
          "name": "_name",
          "type": "string"
        }
      ],
      "name": "UserPrint",
      "type": "event"
    },
    {
      "inputs": [
        {
          "internalType": "uint256",
          "name": "",
          "type": "uint256"
        }
      ],
      "name": "NFTlist",
      "outputs": [
        {
          "internalType": "uint256",
          "name": "itemId",
          "type": "uint256"
        },
        {
          "internalType": "address",
          "name": "nftContract",
          "type": "address"
        },
        {
          "internalType": "uint256",
          "name": "tokenId",
          "type": "uint256"
        },
        {
          "internalType": "address payable",
          "name": "seller",
          "type": "address"
        },
        {
          "internalType": "address payable",
          "name": "admin",
          "type": "address"
        },
        {
          "internalType": "uint256",
          "name": "price",
          "type": "uint256"
        }
      ],
      "stateMutability": "view",
      "type": "function",
      "constant": true
    },
    {
      "inputs": [
        {
          "internalType": "address",
          "name": "",
          "type": "address"
        }
      ],
      "name": "followers",
      "outputs": [
        {
          "components": [
            {
              "internalType": "string",
              "name": "url",
              "type": "string"
            },
            {
              "internalType": "string",
              "name": "title",
              "type": "string"
            },
            {
              "internalType": "string",
              "name": "description",
              "type": "string"
            },
            {
              "internalType": "string",
              "name": "category",
              "type": "string"
            },
            {
              "internalType": "bool",
              "name": "isActive",
              "type": "bool"
            }
          ],
          "internalType": "struct Gamoly.Stream",
          "name": "stream",
          "type": "tuple"
        },
        {
          "internalType": "string",
          "name": "name",
          "type": "string"
        },
        {
          "internalType": "string",
          "name": "avatar",
          "type": "string"
        },
        {
          "internalType": "address",
          "name": "addr",
          "type": "address"
        },
        {
          "internalType": "uint256",
          "name": "index",
          "type": "uint256"
        }
      ],
      "stateMutability": "view",
      "type": "function",
      "constant": true
    },
    {
      "inputs": [
        {
          "internalType": "address",
          "name": "",
          "type": "address"
        }
      ],
      "name": "following",
      "outputs": [
        {
          "components": [
            {
              "internalType": "string",
              "name": "url",
              "type": "string"
            },
            {
              "internalType": "string",
              "name": "title",
              "type": "string"
            },
            {
              "internalType": "string",
              "name": "description",
              "type": "string"
            },
            {
              "internalType": "string",
              "name": "category",
              "type": "string"
            },
            {
              "internalType": "bool",
              "name": "isActive",
              "type": "bool"
            }
          ],
          "internalType": "struct Gamoly.Stream",
          "name": "stream",
          "type": "tuple"
        },
        {
          "internalType": "string",
          "name": "name",
          "type": "string"
        },
        {
          "internalType": "string",
          "name": "avatar",
          "type": "string"
        },
        {
          "internalType": "address",
          "name": "addr",
          "type": "address"
        },
        {
          "internalType": "uint256",
          "name": "index",
          "type": "uint256"
        }
      ],
      "stateMutability": "view",
      "type": "function",
      "constant": true
    },
    {
      "inputs": [],
      "name": "nftCount",
      "outputs": [
        {
          "internalType": "uint256",
          "name": "",
          "type": "uint256"
        }
      ],
      "stateMutability": "view",
      "type": "function",
      "constant": true
    },
    {
      "inputs": [
        {
          "internalType": "address",
          "name": "",
          "type": "address"
        }
      ],
      "name": "users",
      "outputs": [
        {
          "components": [
            {
              "internalType": "string",
              "name": "url",
              "type": "string"
            },
            {
              "internalType": "string",
              "name": "title",
              "type": "string"
            },
            {
              "internalType": "string",
              "name": "description",
              "type": "string"
            },
            {
              "internalType": "string",
              "name": "category",
              "type": "string"
            },
            {
              "internalType": "bool",
              "name": "isActive",
              "type": "bool"
            }
          ],
          "internalType": "struct Gamoly.Stream",
          "name": "stream",
          "type": "tuple"
        },
        {
          "internalType": "string",
          "name": "name",
          "type": "string"
        },
        {
          "internalType": "string",
          "name": "avatar",
          "type": "string"
        },
        {
          "internalType": "address",
          "name": "addr",
          "type": "address"
        },
        {
          "internalType": "uint256",
          "name": "index",
          "type": "uint256"
        }
      ],
      "stateMutability": "view",
      "type": "function",
      "constant": true
    },
    {
      "inputs": [
        {
          "internalType": "address",
          "name": "_address",
          "type": "address"
        }
      ],
      "name": "get",
      "outputs": [
        {
          "components": [
            {
              "components": [
                {
                  "internalType": "string",
                  "name": "url",
                  "type": "string"
                },
                {
                  "internalType": "string",
                  "name": "title",
                  "type": "string"
                },
                {
                  "internalType": "string",
                  "name": "description",
                  "type": "string"
                },
                {
                  "internalType": "string",
                  "name": "category",
                  "type": "string"
                },
                {
                  "internalType": "bool",
                  "name": "isActive",
                  "type": "bool"
                }
              ],
              "internalType": "struct Gamoly.Stream",
              "name": "stream",
              "type": "tuple"
            },
            {
              "internalType": "string",
              "name": "name",
              "type": "string"
            },
            {
              "internalType": "string",
              "name": "avatar",
              "type": "string"
            },
            {
              "internalType": "address",
              "name": "addr",
              "type": "address"
            },
            {
              "internalType": "uint256",
              "name": "index",
              "type": "uint256"
            }
          ],
          "internalType": "struct Gamoly.User",
          "name": "user",
          "type": "tuple"
        }
      ],
      "stateMutability": "view",
      "type": "function",
      "constant": true
    },
    {
      "inputs": [
        {
          "components": [
            {
              "components": [
                {
                  "internalType": "string",
                  "name": "url",
                  "type": "string"
                },
                {
                  "internalType": "string",
                  "name": "title",
                  "type": "string"
                },
                {
                  "internalType": "string",
                  "name": "description",
                  "type": "string"
                },
                {
                  "internalType": "string",
                  "name": "category",
                  "type": "string"
                },
                {
                  "internalType": "bool",
                  "name": "isActive",
                  "type": "bool"
                }
              ],
              "internalType": "struct Gamoly.Stream",
              "name": "stream",
              "type": "tuple"
            },
            {
              "internalType": "string",
              "name": "name",
              "type": "string"
            },
            {
              "internalType": "string",
              "name": "avatar",
              "type": "string"
            },
            {
              "internalType": "address",
              "name": "addr",
              "type": "address"
            },
            {
              "internalType": "uint256",
              "name": "index",
              "type": "uint256"
            }
          ],
          "internalType": "struct Gamoly.User",
          "name": "_user",
          "type": "tuple"
        }
      ],
      "name": "set",
      "outputs": [],
      "stateMutability": "nonpayable",
      "type": "function"
    },
    {
      "inputs": [
        {
          "internalType": "uint256",
          "name": "index",
          "type": "uint256"
        },
        {
          "components": [
            {
              "internalType": "string",
              "name": "url",
              "type": "string"
            },
            {
              "internalType": "string",
              "name": "title",
              "type": "string"
            },
            {
              "internalType": "string",
              "name": "description",
              "type": "string"
            },
            {
              "internalType": "string",
              "name": "category",
              "type": "string"
            },
            {
              "internalType": "bool",
              "name": "isActive",
              "type": "bool"
            }
          ],
          "internalType": "struct Gamoly.Stream",
          "name": "_stream",
          "type": "tuple"
        }
      ],
      "name": "setStream",
      "outputs": [],
      "stateMutability": "nonpayable",
      "type": "function"
    },
    {
      "inputs": [],
      "name": "getLiveUsers",
      "outputs": [
        {
          "components": [
            {
              "components": [
                {
                  "internalType": "string",
                  "name": "url",
                  "type": "string"
                },
                {
                  "internalType": "string",
                  "name": "title",
                  "type": "string"
                },
                {
                  "internalType": "string",
                  "name": "description",
                  "type": "string"
                },
                {
                  "internalType": "string",
                  "name": "category",
                  "type": "string"
                },
                {
                  "internalType": "bool",
                  "name": "isActive",
                  "type": "bool"
                }
              ],
              "internalType": "struct Gamoly.Stream",
              "name": "stream",
              "type": "tuple"
            },
            {
              "internalType": "string",
              "name": "name",
              "type": "string"
            },
            {
              "internalType": "string",
              "name": "avatar",
              "type": "string"
            },
            {
              "internalType": "address",
              "name": "addr",
              "type": "address"
            },
            {
              "internalType": "uint256",
              "name": "index",
              "type": "uint256"
            }
          ],
          "internalType": "struct Gamoly.User[]",
          "name": "user",
          "type": "tuple[]"
        }
      ],
      "stateMutability": "view",
      "type": "function",
      "constant": true
    },
    {
      "inputs": [
        {
          "internalType": "string",
          "name": "name",
          "type": "string"
        },
        {
          "internalType": "string",
          "name": "description",
          "type": "string"
        },
        {
          "internalType": "address",
          "name": "nftContract",
          "type": "address"
        },
        {
          "internalType": "uint256",
          "name": "nftId",
          "type": "uint256"
        },
        {
          "internalType": "uint256",
          "name": "price",
          "type": "uint256"
        }
      ],
      "name": "createNFT",
      "outputs": [],
      "stateMutability": "payable",
      "type": "function",
      "payable": true
    },
    {
      "inputs": [
        {
          "internalType": "address",
          "name": "_admin",
          "type": "address"
        }
      ],
      "name": "getNFT",
      "outputs": [
        {
          "components": [
            {
              "internalType": "uint256",
              "name": "itemId",
              "type": "uint256"
            },
            {
              "internalType": "address",
              "name": "nftContract",
              "type": "address"
            },
            {
              "internalType": "uint256",
              "name": "tokenId",
              "type": "uint256"
            },
            {
              "internalType": "address payable",
              "name": "seller",
              "type": "address"
            },
            {
              "internalType": "address payable",
              "name": "admin",
              "type": "address"
            },
            {
              "internalType": "uint256",
              "name": "price",
              "type": "uint256"
            }
          ],
          "internalType": "struct Gamoly.NFT",
          "name": "nft",
          "type": "tuple"
        }
      ],
      "stateMutability": "view",
      "type": "function",
      "constant": true
    }
  ],
  "bytecode": "0x60806040523480156200001157600080fd5b50604051620033ab380380620033ab83398181016040528101906200003791906200009e565b600160008190555080600760006101000a81548173ffffffffffffffffffffffffffffffffffffffff021916908373ffffffffffffffffffffffffffffffffffffffff1602179055505062000118565b6000815190506200009881620000fe565b92915050565b600060208284031215620000b157600080fd5b6000620000c18482850162000087565b91505092915050565b6000620000d782620000de565b9050919050565b600073ffffffffffffffffffffffffffffffffffffffff82169050919050565b6200010981620000ca565b81146200011557600080fd5b50565b61328380620001286000396000f3fe60806040526004361061009c5760003560e01c806395fc4f3b1161006457806395fc4f3b146101b45780639af56f5f146101f6578063a87430ba1461021f578063c2bc2efc14610260578063d43dabba1461029d578063de6d00e5146102c85761009c565b80630717e942146100a15780630af2c6ca146100ca578063161a6c1e146100f557806374a5a41b1461013257806395d955e214610173575b600080fd5b3480156100ad57600080fd5b506100c860048036038101906100c3919061276e565b6102e4565b005b3480156100d657600080fd5b506100df6105b6565b6040516100ec9190612e19565b60405180910390f35b34801561010157600080fd5b5061011c6004803603810190610117919061269e565b6105bc565b6040516101299190612d74565b60405180910390f35b34801561013e57600080fd5b506101596004803603810190610154919061269e565b610735565b60405161016a959493929190612d8f565b60405180910390f35b34801561017f57600080fd5b5061019a6004803603810190610195919061269e565b610b08565b6040516101ab959493929190612d8f565b60405180910390f35b3480156101c057600080fd5b506101db60048036038101906101d691906127af565b610edb565b6040516101ed96959493929190612e34565b60405180910390f35b34801561020257600080fd5b5061021d600480360381019061021891906127d8565b610f87565b005b34801561022b57600080fd5b506102466004803603810190610241919061269e565b611113565b604051610257959493929190612d8f565b60405180910390f35b34801561026c57600080fd5b506102876004803603810190610282919061269e565b6114e6565b6040516102949190612df7565b60405180910390f35b3480156102a957600080fd5b506102b261193a565b6040516102bf9190612cf2565b60405180910390f35b6102e260048036038101906102dd91906126c7565b611f1a565b005b6102ee6009612284565b6102f8600961229a565b81608001818152505080600160003373ffffffffffffffffffffffffffffffffffffffff1673ffffffffffffffffffffffffffffffffffffffff16815260200190815260200160002060008201518160000160008201518160000190805190602001906103669291906122a8565b5060208201518160010190805190602001906103839291906122a8565b5060408201518160020190805190602001906103a09291906122a8565b5060608201518160030190805190602001906103bd9291906122a8565b5060808201518160040160006101000a81548160ff021916908315150217905550505060208201518160050190805190602001906103fc9291906122a8565b5060408201518160060190805190602001906104199291906122a8565b5060608201518160070160006101000a81548173ffffffffffffffffffffffffffffffffffffffff021916908373ffffffffffffffffffffffffffffffffffffffff1602179055506080820151816008015590505080600260008360800151815260200190815260200160002060008201518160000160008201518160000190805190602001906104ab9291906122a8565b5060208201518160010190805190602001906104c89291906122a8565b5060408201518160020190805190602001906104e59291906122a8565b5060608201518160030190805190602001906105029291906122a8565b5060808201518160040160006101000a81548160ff021916908315150217905550505060208201518160050190805190602001906105419291906122a8565b50604082015181600601908051906020019061055e9291906122a8565b5060608201518160070160006101000a81548173ffffffffffffffffffffffffffffffffffffffff021916908373ffffffffffffffffffffffffffffffffffffffff1602179055506080820151816008015590505050565b600c5481565b6105c461232e565b600560008373ffffffffffffffffffffffffffffffffffffffff1673ffffffffffffffffffffffffffffffffffffffff1681526020019081526020016000206040518060c0016040529081600082015481526020016001820160009054906101000a900473ffffffffffffffffffffffffffffffffffffffff1673ffffffffffffffffffffffffffffffffffffffff1673ffffffffffffffffffffffffffffffffffffffff168152602001600282015481526020016003820160009054906101000a900473ffffffffffffffffffffffffffffffffffffffff1673ffffffffffffffffffffffffffffffffffffffff1673ffffffffffffffffffffffffffffffffffffffff1681526020016004820160009054906101000a900473ffffffffffffffffffffffffffffffffffffffff1673ffffffffffffffffffffffffffffffffffffffff1673ffffffffffffffffffffffffffffffffffffffff1681526020016005820154815250509050919050565b6004602052806000526040600020600091509050806000016040518060a001604052908160008201805461076890613043565b80601f016020809104026020016040519081016040528092919081815260200182805461079490613043565b80156107e15780601f106107b6576101008083540402835291602001916107e1565b820191906000526020600020905b8154815290600101906020018083116107c457829003601f168201915b505050505081526020016001820180546107fa90613043565b80601f016020809104026020016040519081016040528092919081815260200182805461082690613043565b80156108735780601f1061084857610100808354040283529160200191610873565b820191906000526020600020905b81548152906001019060200180831161085657829003601f168201915b5050505050815260200160028201805461088c90613043565b80601f01602080910402602001604051908101604052809291908181526020018280546108b890613043565b80156109055780601f106108da57610100808354040283529160200191610905565b820191906000526020600020905b8154815290600101906020018083116108e857829003601f168201915b5050505050815260200160038201805461091e90613043565b80601f016020809104026020016040519081016040528092919081815260200182805461094a90613043565b80156109975780601f1061096c57610100808354040283529160200191610997565b820191906000526020600020905b81548152906001019060200180831161097a57829003601f168201915b505050505081526020016004820160009054906101000a900460ff161515151581525050908060050180546109cb90613043565b80601f01602080910402602001604051908101604052809291908181526020018280546109f790613043565b8015610a445780601f10610a1957610100808354040283529160200191610a44565b820191906000526020600020905b815481529060010190602001808311610a2757829003601f168201915b505050505090806006018054610a5990613043565b80601f0160208091040260200160405190810160405280929190818152602001828054610a8590613043565b8015610ad25780601f10610aa757610100808354040283529160200191610ad2565b820191906000526020600020905b815481529060010190602001808311610ab557829003601f168201915b5050505050908060070160009054906101000a900473ffffffffffffffffffffffffffffffffffffffff16908060080154905085565b6003602052806000526040600020600091509050806000016040518060a0016040529081600082018054610b3b90613043565b80601f0160208091040260200160405190810160405280929190818152602001828054610b6790613043565b8015610bb45780601f10610b8957610100808354040283529160200191610bb4565b820191906000526020600020905b815481529060010190602001808311610b9757829003601f168201915b50505050508152602001600182018054610bcd90613043565b80601f0160208091040260200160405190810160405280929190818152602001828054610bf990613043565b8015610c465780601f10610c1b57610100808354040283529160200191610c46565b820191906000526020600020905b815481529060010190602001808311610c2957829003601f168201915b50505050508152602001600282018054610c5f90613043565b80601f0160208091040260200160405190810160405280929190818152602001828054610c8b90613043565b8015610cd85780601f10610cad57610100808354040283529160200191610cd8565b820191906000526020600020905b815481529060010190602001808311610cbb57829003601f168201915b50505050508152602001600382018054610cf190613043565b80601f0160208091040260200160405190810160405280929190818152602001828054610d1d90613043565b8015610d6a5780601f10610d3f57610100808354040283529160200191610d6a565b820191906000526020600020905b815481529060010190602001808311610d4d57829003601f168201915b505050505081526020016004820160009054906101000a900460ff16151515158152505090806005018054610d9e90613043565b80601f0160208091040260200160405190810160405280929190818152602001828054610dca90613043565b8015610e175780601f10610dec57610100808354040283529160200191610e17565b820191906000526020600020905b815481529060010190602001808311610dfa57829003601f168201915b505050505090806006018054610e2c90613043565b80601f0160208091040260200160405190810160405280929190818152602001828054610e5890613043565b8015610ea55780601f10610e7a57610100808354040283529160200191610ea5565b820191906000526020600020905b815481529060010190602001808311610e8857829003601f168201915b5050505050908060070160009054906101000a900473ffffffffffffffffffffffffffffffffffffffff16908060080154905085565b600b8181548110610eeb57600080fd5b90600052602060002090600602016000915090508060000154908060010160009054906101000a900473ffffffffffffffffffffffffffffffffffffffff16908060020154908060030160009054906101000a900473ffffffffffffffffffffffffffffffffffffffff16908060040160009054906101000a900473ffffffffffffffffffffffffffffffffffffffff16908060050154905086565b80600160003373ffffffffffffffffffffffffffffffffffffffff1673ffffffffffffffffffffffffffffffffffffffff1681526020019081526020016000206000016000820151816000019080519060200190610fe69291906122a8565b5060208201518160010190805190602001906110039291906122a8565b5060408201518160020190805190602001906110209291906122a8565b50606082015181600301908051906020019061103d9291906122a8565b5060808201518160040160006101000a81548160ff021916908315150217905550905050806002600084815260200190815260200160002060000160008201518160000190805190602001906110949291906122a8565b5060208201518160010190805190602001906110b19291906122a8565b5060408201518160020190805190602001906110ce9291906122a8565b5060608201518160030190805190602001906110eb9291906122a8565b5060808201518160040160006101000a81548160ff0219169083151502179055509050505050565b6001602052806000526040600020600091509050806000016040518060a001604052908160008201805461114690613043565b80601f016020809104026020016040519081016040528092919081815260200182805461117290613043565b80156111bf5780601f10611194576101008083540402835291602001916111bf565b820191906000526020600020905b8154815290600101906020018083116111a257829003601f168201915b505050505081526020016001820180546111d890613043565b80601f016020809104026020016040519081016040528092919081815260200182805461120490613043565b80156112515780601f1061122657610100808354040283529160200191611251565b820191906000526020600020905b81548152906001019060200180831161123457829003601f168201915b5050505050815260200160028201805461126a90613043565b80601f016020809104026020016040519081016040528092919081815260200182805461129690613043565b80156112e35780601f106112b8576101008083540402835291602001916112e3565b820191906000526020600020905b8154815290600101906020018083116112c657829003601f168201915b505050505081526020016003820180546112fc90613043565b80601f016020809104026020016040519081016040528092919081815260200182805461132890613043565b80156113755780601f1061134a57610100808354040283529160200191611375565b820191906000526020600020905b81548152906001019060200180831161135857829003601f168201915b505050505081526020016004820160009054906101000a900460ff161515151581525050908060050180546113a990613043565b80601f01602080910402602001604051908101604052809291908181526020018280546113d590613043565b80156114225780601f106113f757610100808354040283529160200191611422565b820191906000526020600020905b81548152906001019060200180831161140557829003601f168201915b50505050509080600601805461143790613043565b80601f016020809104026020016040519081016040528092919081815260200182805461146390613043565b80156114b05780601f10611485576101008083540402835291602001916114b0565b820191906000526020600020905b81548152906001019060200180831161149357829003601f168201915b5050505050908060070160009054906101000a900473ffffffffffffffffffffffffffffffffffffffff16908060080154905085565b6114ee6123a6565b600160008373ffffffffffffffffffffffffffffffffffffffff1673ffffffffffffffffffffffffffffffffffffffff1681526020019081526020016000206040518060a0016040529081600082016040518060a001604052908160008201805461155890613043565b80601f016020809104026020016040519081016040528092919081815260200182805461158490613043565b80156115d15780601f106115a6576101008083540402835291602001916115d1565b820191906000526020600020905b8154815290600101906020018083116115b457829003601f168201915b505050505081526020016001820180546115ea90613043565b80601f016020809104026020016040519081016040528092919081815260200182805461161690613043565b80156116635780601f1061163857610100808354040283529160200191611663565b820191906000526020600020905b81548152906001019060200180831161164657829003601f168201915b5050505050815260200160028201805461167c90613043565b80601f01602080910402602001604051908101604052809291908181526020018280546116a890613043565b80156116f55780601f106116ca576101008083540402835291602001916116f5565b820191906000526020600020905b8154815290600101906020018083116116d857829003601f168201915b5050505050815260200160038201805461170e90613043565b80601f016020809104026020016040519081016040528092919081815260200182805461173a90613043565b80156117875780601f1061175c57610100808354040283529160200191611787565b820191906000526020600020905b81548152906001019060200180831161176a57829003601f168201915b505050505081526020016004820160009054906101000a900460ff16151515158152505081526020016005820180546117bf90613043565b80601f01602080910402602001604051908101604052809291908181526020018280546117eb90613043565b80156118385780601f1061180d57610100808354040283529160200191611838565b820191906000526020600020905b81548152906001019060200180831161181b57829003601f168201915b5050505050815260200160068201805461185190613043565b80601f016020809104026020016040519081016040528092919081815260200182805461187d90613043565b80156118ca5780601f1061189f576101008083540402835291602001916118ca565b820191906000526020600020905b8154815290600101906020018083116118ad57829003601f168201915b505050505081526020016007820160009054906101000a900473ffffffffffffffffffffffffffffffffffffffff1673ffffffffffffffffffffffffffffffffffffffff1673ffffffffffffffffffffffffffffffffffffffff1681526020016008820154815250509050919050565b60606000611948600961229a565b905060008060005b838110156119ba57600115156002600060018461196d9190612f51565b815260200190815260200160002060000160040160009054906101000a900460ff16151514156119a7576001836119a49190612f51565b92505b80806119b2906130a6565b915050611950565b5060008267ffffffffffffffff8111156119fd577f4e487b7100000000000000000000000000000000000000000000000000000000600052604160045260246000fd5b604051908082528060200260200182016040528015611a3657816020015b611a236123a6565b815260200190600190039081611a1b5790505b50905060005b84811015611f0f576001151560026000600184611a599190612f51565b815260200190815260200160002060000160040160009054906101000a900460ff1615151415611efc5760026000600183611a949190612f51565b81526020019081526020016000206040518060a0016040529081600082016040518060a0016040529081600082018054611acd90613043565b80601f0160208091040260200160405190810160405280929190818152602001828054611af990613043565b8015611b465780601f10611b1b57610100808354040283529160200191611b46565b820191906000526020600020905b815481529060010190602001808311611b2957829003601f168201915b50505050508152602001600182018054611b5f90613043565b80601f0160208091040260200160405190810160405280929190818152602001828054611b8b90613043565b8015611bd85780601f10611bad57610100808354040283529160200191611bd8565b820191906000526020600020905b815481529060010190602001808311611bbb57829003601f168201915b50505050508152602001600282018054611bf190613043565b80601f0160208091040260200160405190810160405280929190818152602001828054611c1d90613043565b8015611c6a5780601f10611c3f57610100808354040283529160200191611c6a565b820191906000526020600020905b815481529060010190602001808311611c4d57829003601f168201915b50505050508152602001600382018054611c8390613043565b80601f0160208091040260200160405190810160405280929190818152602001828054611caf90613043565b8015611cfc5780601f10611cd157610100808354040283529160200191611cfc565b820191906000526020600020905b815481529060010190602001808311611cdf57829003601f168201915b505050505081526020016004820160009054906101000a900460ff1615151515815250508152602001600582018054611d3490613043565b80601f0160208091040260200160405190810160405280929190818152602001828054611d6090613043565b8015611dad5780601f10611d8257610100808354040283529160200191611dad565b820191906000526020600020905b815481529060010190602001808311611d9057829003601f168201915b50505050508152602001600682018054611dc690613043565b80601f0160208091040260200160405190810160405280929190818152602001828054611df290613043565b8015611e3f5780601f10611e1457610100808354040283529160200191611e3f565b820191906000526020600020905b815481529060010190602001808311611e2257829003601f168201915b505050505081526020016007820160009054906101000a900473ffffffffffffffffffffffffffffffffffffffff1673ffffffffffffffffffffffffffffffffffffffff1673ffffffffffffffffffffffffffffffffffffffff168152602001600882015481525050828481518110611ee1577f4e487b7100000000000000000000000000000000000000000000000000000000600052603260045260246000fd5b6020026020010181905250600183611ef99190612f51565b92505b8080611f07906130a6565b915050611a3c565b508094505050505090565b60026000541415611f60576040517f08c379a0000000000000000000000000000000000000000000000000000000008152600401611f5790612d54565b60405180910390fd5b6002600081905550600760009054906101000a900473ffffffffffffffffffffffffffffffffffffffff1673ffffffffffffffffffffffffffffffffffffffff163373ffffffffffffffffffffffffffffffffffffffff1614611ff8576040517f08c379a0000000000000000000000000000000000000000000000000000000008152600401611fef90612d34565b60405180910390fd5b6000811161203b576040517f08c379a000000000000000000000000000000000000000000000000000000000815260040161203290612d14565b60405180910390fd5b7fd6896bf6b58a373f3507be627a6c1665b85853a848393258c850171275e5016d338360405161206c929190612cc9565b60405180910390a161207e6008612284565b600061208a600861229a565b90508373ffffffffffffffffffffffffffffffffffffffff166323b872dd3330866040518463ffffffff1660e01b81526004016120c993929190612c92565b600060405180830381600087803b1580156120e357600080fd5b505af11580156120f7573d6000803e3d6000fd5b505050506040518060c001604052808281526020018573ffffffffffffffffffffffffffffffffffffffff1681526020018481526020013373ffffffffffffffffffffffffffffffffffffffff168152602001600073ffffffffffffffffffffffffffffffffffffffff16815260200183815250600660008381526020019081526020016000206000820151816000015560208201518160010160006101000a81548173ffffffffffffffffffffffffffffffffffffffff021916908373ffffffffffffffffffffffffffffffffffffffff1602179055506040820151816002015560608201518160030160006101000a81548173ffffffffffffffffffffffffffffffffffffffff021916908373ffffffffffffffffffffffffffffffffffffffff16021790555060808201518160040160006101000a81548173ffffffffffffffffffffffffffffffffffffffff021916908373ffffffffffffffffffffffffffffffffffffffff16021790555060a082015181600501559050505060016000819055505050505050565b6001816000016000828254019250508190555050565b600081600001549050919050565b8280546122b490613043565b90600052602060002090601f0160209004810192826122d6576000855561231d565b82601f106122ef57805160ff191683800117855561231d565b8280016001018555821561231d579182015b8281111561231c578251825591602001919060010190612301565b5b50905061232a91906123f1565b5090565b6040518060c0016040528060008152602001600073ffffffffffffffffffffffffffffffffffffffff16815260200160008152602001600073ffffffffffffffffffffffffffffffffffffffff168152602001600073ffffffffffffffffffffffffffffffffffffffff168152602001600081525090565b6040518060a001604052806123b961240e565b81526020016060815260200160608152602001600073ffffffffffffffffffffffffffffffffffffffff168152602001600081525090565b5b8082111561240a5760008160009055506001016123f2565b5090565b6040518060a00160405280606081526020016060815260200160608152602001606081526020016000151581525090565b600061245261244d84612eba565b612e95565b90508281526020810184848401111561246a57600080fd5b612475848285613001565b509392505050565b60008135905061248c81613208565b92915050565b6000813590506124a18161321f565b92915050565b600082601f8301126124b857600080fd5b81356124c884826020860161243f565b91505092915050565b600060a082840312156124e357600080fd5b6124ed60a0612e95565b9050600082013567ffffffffffffffff81111561250957600080fd5b612515848285016124a7565b600083015250602082013567ffffffffffffffff81111561253557600080fd5b612541848285016124a7565b602083015250604082013567ffffffffffffffff81111561256157600080fd5b61256d848285016124a7565b604083015250606082013567ffffffffffffffff81111561258d57600080fd5b612599848285016124a7565b60608301525060806125ad84828501612492565b60808301525092915050565b600060a082840312156125cb57600080fd5b6125d560a0612e95565b9050600082013567ffffffffffffffff8111156125f157600080fd5b6125fd848285016124d1565b600083015250602082013567ffffffffffffffff81111561261d57600080fd5b612629848285016124a7565b602083015250604082013567ffffffffffffffff81111561264957600080fd5b612655848285016124a7565b60408301525060606126698482850161247d565b606083015250608061267d84828501612689565b60808301525092915050565b60008135905061269881613236565b92915050565b6000602082840312156126b057600080fd5b60006126be8482850161247d565b91505092915050565b600080600080600060a086880312156126df57600080fd5b600086013567ffffffffffffffff8111156126f957600080fd5b612705888289016124a7565b955050602086013567ffffffffffffffff81111561272257600080fd5b61272e888289016124a7565b945050604061273f8882890161247d565b935050606061275088828901612689565b925050608061276188828901612689565b9150509295509295909350565b60006020828403121561278057600080fd5b600082013567ffffffffffffffff81111561279a57600080fd5b6127a6848285016125b9565b91505092915050565b6000602082840312156127c157600080fd5b60006127cf84828501612689565b91505092915050565b600080604083850312156127eb57600080fd5b60006127f985828601612689565b925050602083013567ffffffffffffffff81111561281657600080fd5b612822858286016124d1565b9150509250929050565b60006128388383612b6c565b905092915050565b61284981612fb9565b82525050565b61285881612fb9565b82525050565b61286781612fa7565b82525050565b61287681612fa7565b82525050565b600061288782612efb565b6128918185612f1e565b9350836020820285016128a385612eeb565b8060005b858110156128df57848403895281516128c0858261282c565b94506128cb83612f11565b925060208a019950506001810190506128a7565b50829750879550505050505092915050565b6128fa81612fcb565b82525050565b600061290b82612f06565b6129158185612f2f565b9350612925818560208601613010565b61292e8161317c565b840191505092915050565b600061294482612f06565b61294e8185612f40565b935061295e818560208601613010565b6129678161317c565b840191505092915050565b600061297f601b83612f40565b915061298a8261318d565b602082019050919050565b60006129a2601383612f40565b91506129ad826131b6565b602082019050919050565b60006129c5601f83612f40565b91506129d0826131df565b602082019050919050565b60c0820160008201516129f16000850182612c74565b506020820151612a04602085018261285e565b506040820151612a176040850182612c74565b506060820151612a2a6060850182612840565b506080820151612a3d6080850182612840565b5060a0820151612a5060a0850182612c74565b50505050565b600060a0830160008301518482036000860152612a738282612900565b91505060208301518482036020860152612a8d8282612900565b91505060408301518482036040860152612aa78282612900565b91505060608301518482036060860152612ac18282612900565b9150506080830151612ad660808601826128f1565b508091505092915050565b600060a0830160008301518482036000860152612afe8282612900565b91505060208301518482036020860152612b188282612900565b91505060408301518482036040860152612b328282612900565b91505060608301518482036060860152612b4c8282612900565b9150506080830151612b6160808601826128f1565b508091505092915050565b600060a0830160008301518482036000860152612b898282612a56565b91505060208301518482036020860152612ba38282612900565b91505060408301518482036040860152612bbd8282612900565b9150506060830151612bd2606086018261285e565b506080830151612be56080860182612c74565b508091505092915050565b600060a0830160008301518482036000860152612c0d8282612a56565b91505060208301518482036020860152612c278282612900565b91505060408301518482036040860152612c418282612900565b9150506060830151612c56606086018261285e565b506080830151612c696080860182612c74565b508091505092915050565b612c7d81612ff7565b82525050565b612c8c81612ff7565b82525050565b6000606082019050612ca7600083018661286d565b612cb4602083018561286d565b612cc16040830184612c83565b949350505050565b6000604082019050612cde600083018561286d565b612ceb6020830184612c83565b9392505050565b60006020820190508181036000830152612d0c818461287c565b905092915050565b60006020820190508181036000830152612d2d81612972565b9050919050565b60006020820190508181036000830152612d4d81612995565b9050919050565b60006020820190508181036000830152612d6d816129b8565b9050919050565b600060c082019050612d8960008301846129db565b92915050565b600060a0820190508181036000830152612da98188612ae1565b90508181036020830152612dbd8187612939565b90508181036040830152612dd18186612939565b9050612de0606083018561286d565b612ded6080830184612c83565b9695505050505050565b60006020820190508181036000830152612e118184612bf0565b905092915050565b6000602082019050612e2e6000830184612c83565b92915050565b600060c082019050612e496000830189612c83565b612e56602083018861286d565b612e636040830187612c83565b612e70606083018661284f565b612e7d608083018561284f565b612e8a60a0830184612c83565b979650505050505050565b6000612e9f612eb0565b9050612eab8282613075565b919050565b6000604051905090565b600067ffffffffffffffff821115612ed557612ed461314d565b5b612ede8261317c565b9050602081019050919050565b6000819050602082019050919050565b600081519050919050565b600081519050919050565b6000602082019050919050565b600082825260208201905092915050565b600082825260208201905092915050565b600082825260208201905092915050565b6000612f5c82612ff7565b9150612f6783612ff7565b9250827fffffffffffffffffffffffffffffffffffffffffffffffffffffffffffffffff03821115612f9c57612f9b6130ef565b5b828201905092915050565b6000612fb282612fd7565b9050919050565b6000612fc482612fd7565b9050919050565b60008115159050919050565b600073ffffffffffffffffffffffffffffffffffffffff82169050919050565b6000819050919050565b82818337600083830152505050565b60005b8381101561302e578082015181840152602081019050613013565b8381111561303d576000848401525b50505050565b6000600282049050600182168061305b57607f821691505b6020821081141561306f5761306e61311e565b5b50919050565b61307e8261317c565b810181811067ffffffffffffffff8211171561309d5761309c61314d565b5b80604052505050565b60006130b182612ff7565b91507fffffffffffffffffffffffffffffffffffffffffffffffffffffffffffffffff8214156130e4576130e36130ef565b5b600182019050919050565b7f4e487b7100000000000000000000000000000000000000000000000000000000600052601160045260246000fd5b7f4e487b7100000000000000000000000000000000000000000000000000000000600052602260045260246000fd5b7f4e487b7100000000000000000000000000000000000000000000000000000000600052604160045260246000fd5b6000601f19601f8301169050919050565b7f50726963652073686f756c642062652061746c65617374203120210000000000600082015250565b7f53656e646572206973206e6f742061646d696e00000000000000000000000000600082015250565b7f5265656e7472616e637947756172643a207265656e7472616e742063616c6c00600082015250565b61321181612fa7565b811461321c57600080fd5b50565b61322881612fcb565b811461323357600080fd5b50565b61323f81612ff7565b811461324a57600080fd5b5056fea2646970667358221220cd9c0fb1f0f2cd313933dfe85c232a00e9394e965302e34c08b52cd142c5ea7364736f6c63430008030033",
  "immutableReferences": {},
  "source": "pragma solidity ^0.8.3;\npragma experimental ABIEncoderV2;\n// SPDX-License-Identifier: MIT\nimport \"@openzeppelin/contracts/utils/Counters.sol\";\nimport \"@openzeppelin/contracts/token/ERC721/extensions/ERC721URIStorage.sol\";\nimport \"@openzeppelin/contracts/security/ReentrancyGuard.sol\";\nimport \"@openzeppelin/contracts/token/ERC721/ERC721.sol\";\n\ncontract Gamoly is ReentrancyGuard {\n    using Counters for Counters.Counter;\n\n    mapping(address => User) public users;\n    mapping(uint256 => User) idToUser;\n    mapping(address => User) public followers;\n    mapping(address => User) public following;\n    mapping(address => NFT) totalNFT;\n    mapping(uint256 => NFT) idToNFT;\n    address payable admin;\n    Counters.Counter private _nftId;\n    Counters.Counter private _userCount;\n    Counters.Counter private _itemsSold;\n\n    constructor(address payable _admin) public {\n        admin = _admin;\n    }\n\n    event UserPrint(string _name);\n\n    struct User {\n        Stream stream;\n        string name;\n        string avatar;\n        address addr;\n        uint256 index;\n    }\n\n    struct Stream {\n        string url;\n        string title;\n        string description;\n        string category;\n        bool isActive;\n    }\n\n    function get(address _address) public view returns (User memory user) {\n        return users[_address];\n    }\n\n    function set(User memory _user) public {\n        _userCount.increment();\n        _user.index = _userCount.current();\n        users[msg.sender] = _user;\n        idToUser[_user.index] = _user;\n    }\n\n    function setStream(uint256 index, Stream memory _stream) public {\n        users[msg.sender].stream = _stream;\n        idToUser[index].stream = _stream;\n    }\n\n    function getLiveUsers() public view returns (User[] memory user) {\n        uint256 totalItemCount = _userCount.current();\n        uint256 itemCount = 0;\n        uint256 currentIndex = 0;\n\n        for (uint256 i = 0; i < totalItemCount; i++) {\n            if (idToUser[i + 1].stream.isActive == true) {\n                itemCount += 1;\n            }\n        }\n\n        User[] memory liveUsers = new User[](itemCount);\n        for (uint256 i = 0; i < totalItemCount; i++) {\n            if (idToUser[i + 1].stream.isActive == true) {\n                liveUsers[currentIndex] = idToUser[i + 1];\n                currentIndex += 1;\n            }\n        }\n        return liveUsers;\n    }\n\n    //----Market place contract\n\n    NFT[] public NFTlist;\n\n    event MarketItemCreated(\n        uint256 indexed itemId,\n        address indexed nftContract,\n        uint256 indexed nftId,\n        address seller,\n        address admin,\n        uint256 price\n    );\n\n    uint256 public nftCount;\n\n    struct NFT {\n        uint256 itemId;\n        address nftContract;\n        uint256 tokenId;\n        address payable seller;\n        address payable admin;\n        uint256 price;\n    }\n\n    event Message(address from, uint256 tokenId);\n\n    function createNFT(\n        string memory name,\n        string memory description,\n        address nftContract,\n        uint256 nftId,\n        uint256 price\n    ) public payable nonReentrant {\n        require(msg.sender == admin, \"Sender is not admin\");\n        require(price > 0, \"Price should be atleast 1 !\");\n        emit Message(msg.sender, nftId);\n        _nftId.increment();\n        uint256 itemId = _nftId.current();\n\n        IERC721(nftContract).transferFrom(msg.sender, address(this), nftId);\n\n        idToNFT[itemId] = NFT(\n            itemId,\n            nftContract,\n            nftId,\n            payable(msg.sender),\n            payable(address(0)),\n            price\n        );\n    }\n\n    //    function sellNFT()\n\n    function getNFT(address _admin) public view returns (NFT memory nft) {\n        return totalNFT[_admin];\n    }\n}\n",
  "sourcePath": "/Users/osfy/Documents/NextJSProjects/video-streaming/contracts/Gamoly.sol",
  "compiler": {
    "name": "solc",
    "version": "0.8.3+commit.8d00100c.Emscripten.clang"
  },
  "schemaVersion": "3.4.1",
  "updatedAt": "2022-03-31T06:49:38.385Z",
  "networkType": "ethereum",
  "devdoc": {
    "kind": "dev",
    "methods": {},
    "version": 1
  },
  "userdoc": {
    "kind": "user",
    "methods": {},
    "version": 1
  }
}