{
  "contractName": "Gamoly",
  "abi": [
    {
      "inputs": [
        {
          "internalType": "address payable",
          "name": "_admin",
          "type": "address"
        }
      ],
      "stateMutability": "nonpayable",
      "type": "constructor"
    },
    {
      "anonymous": false,
      "inputs": [
        {
          "indexed": true,
          "internalType": "uint256",
          "name": "itemId",
          "type": "uint256"
        },
        {
          "indexed": true,
          "internalType": "address",
          "name": "nftContract",
          "type": "address"
        },
        {
          "indexed": true,
          "internalType": "uint256",
          "name": "nftId",
          "type": "uint256"
        },
        {
          "indexed": false,
          "internalType": "address",
          "name": "seller",
          "type": "address"
        },
        {
          "indexed": false,
          "internalType": "address",
          "name": "admin",
          "type": "address"
        },
        {
          "indexed": false,
          "internalType": "uint256",
          "name": "price",
          "type": "uint256"
        }
      ],
      "name": "MarketItemCreated",
      "type": "event"
    },
    {
      "anonymous": false,
      "inputs": [
        {
          "indexed": false,
          "internalType": "address",
          "name": "from",
          "type": "address"
        },
        {
          "indexed": false,
          "internalType": "uint256",
          "name": "tokenId",
          "type": "uint256"
        }
      ],
      "name": "Message",
      "type": "event"
    },
    {
      "inputs": [
        {
          "internalType": "uint256",
          "name": "",
          "type": "uint256"
        }
      ],
      "name": "NFTlist",
      "outputs": [
        {
          "internalType": "uint256",
          "name": "itemId",
          "type": "uint256"
        },
        {
          "internalType": "address",
          "name": "nftContract",
          "type": "address"
        },
        {
          "internalType": "uint256",
          "name": "tokenId",
          "type": "uint256"
        },
        {
          "internalType": "address payable",
          "name": "seller",
          "type": "address"
        },
        {
          "internalType": "address payable",
          "name": "admin",
          "type": "address"
        },
        {
          "internalType": "uint256",
          "name": "price",
          "type": "uint256"
        }
      ],
      "stateMutability": "view",
      "type": "function",
      "constant": true
    },
    {
      "inputs": [
        {
          "internalType": "address",
          "name": "",
          "type": "address"
        }
      ],
      "name": "followers",
      "outputs": [
        {
          "components": [
            {
              "internalType": "string",
              "name": "url",
              "type": "string"
            },
            {
              "internalType": "string",
              "name": "title",
              "type": "string"
            },
            {
              "internalType": "string",
              "name": "description",
              "type": "string"
            },
            {
              "internalType": "string",
              "name": "category",
              "type": "string"
            },
            {
              "internalType": "bool",
              "name": "isActive",
              "type": "bool"
            }
          ],
          "internalType": "struct Gamoly.Stream",
          "name": "stream",
          "type": "tuple"
        },
        {
          "internalType": "string",
          "name": "name",
          "type": "string"
        },
        {
          "internalType": "string",
          "name": "avatar",
          "type": "string"
        },
        {
          "internalType": "uint256",
          "name": "index",
          "type": "uint256"
        }
      ],
      "stateMutability": "view",
      "type": "function",
      "constant": true
    },
    {
      "inputs": [
        {
          "internalType": "address",
          "name": "",
          "type": "address"
        }
      ],
      "name": "following",
      "outputs": [
        {
          "components": [
            {
              "internalType": "string",
              "name": "url",
              "type": "string"
            },
            {
              "internalType": "string",
              "name": "title",
              "type": "string"
            },
            {
              "internalType": "string",
              "name": "description",
              "type": "string"
            },
            {
              "internalType": "string",
              "name": "category",
              "type": "string"
            },
            {
              "internalType": "bool",
              "name": "isActive",
              "type": "bool"
            }
          ],
          "internalType": "struct Gamoly.Stream",
          "name": "stream",
          "type": "tuple"
        },
        {
          "internalType": "string",
          "name": "name",
          "type": "string"
        },
        {
          "internalType": "string",
          "name": "avatar",
          "type": "string"
        },
        {
          "internalType": "uint256",
          "name": "index",
          "type": "uint256"
        }
      ],
      "stateMutability": "view",
      "type": "function",
      "constant": true
    },
    {
      "inputs": [],
      "name": "nftCount",
      "outputs": [
        {
          "internalType": "uint256",
          "name": "",
          "type": "uint256"
        }
      ],
      "stateMutability": "view",
      "type": "function",
      "constant": true
    },
    {
      "inputs": [
        {
          "internalType": "address",
          "name": "",
          "type": "address"
        }
      ],
      "name": "users",
      "outputs": [
        {
          "components": [
            {
              "internalType": "string",
              "name": "url",
              "type": "string"
            },
            {
              "internalType": "string",
              "name": "title",
              "type": "string"
            },
            {
              "internalType": "string",
              "name": "description",
              "type": "string"
            },
            {
              "internalType": "string",
              "name": "category",
              "type": "string"
            },
            {
              "internalType": "bool",
              "name": "isActive",
              "type": "bool"
            }
          ],
          "internalType": "struct Gamoly.Stream",
          "name": "stream",
          "type": "tuple"
        },
        {
          "internalType": "string",
          "name": "name",
          "type": "string"
        },
        {
          "internalType": "string",
          "name": "avatar",
          "type": "string"
        },
        {
          "internalType": "uint256",
          "name": "index",
          "type": "uint256"
        }
      ],
      "stateMutability": "view",
      "type": "function",
      "constant": true
    },
    {
      "inputs": [],
      "name": "get",
      "outputs": [
        {
          "components": [
            {
              "components": [
                {
                  "internalType": "string",
                  "name": "url",
                  "type": "string"
                },
                {
                  "internalType": "string",
                  "name": "title",
                  "type": "string"
                },
                {
                  "internalType": "string",
                  "name": "description",
                  "type": "string"
                },
                {
                  "internalType": "string",
                  "name": "category",
                  "type": "string"
                },
                {
                  "internalType": "bool",
                  "name": "isActive",
                  "type": "bool"
                }
              ],
              "internalType": "struct Gamoly.Stream",
              "name": "stream",
              "type": "tuple"
            },
            {
              "internalType": "string",
              "name": "name",
              "type": "string"
            },
            {
              "internalType": "string",
              "name": "avatar",
              "type": "string"
            },
            {
              "internalType": "uint256",
              "name": "index",
              "type": "uint256"
            }
          ],
          "internalType": "struct Gamoly.User",
          "name": "user",
          "type": "tuple"
        }
      ],
      "stateMutability": "view",
      "type": "function",
      "constant": true
    },
    {
      "inputs": [
        {
          "components": [
            {
              "components": [
                {
                  "internalType": "string",
                  "name": "url",
                  "type": "string"
                },
                {
                  "internalType": "string",
                  "name": "title",
                  "type": "string"
                },
                {
                  "internalType": "string",
                  "name": "description",
                  "type": "string"
                },
                {
                  "internalType": "string",
                  "name": "category",
                  "type": "string"
                },
                {
                  "internalType": "bool",
                  "name": "isActive",
                  "type": "bool"
                }
              ],
              "internalType": "struct Gamoly.Stream",
              "name": "stream",
              "type": "tuple"
            },
            {
              "internalType": "string",
              "name": "name",
              "type": "string"
            },
            {
              "internalType": "string",
              "name": "avatar",
              "type": "string"
            },
            {
              "internalType": "uint256",
              "name": "index",
              "type": "uint256"
            }
          ],
          "internalType": "struct Gamoly.User",
          "name": "_user",
          "type": "tuple"
        }
      ],
      "name": "set",
      "outputs": [],
      "stateMutability": "nonpayable",
      "type": "function"
    },
    {
      "inputs": [
        {
          "internalType": "uint256",
          "name": "index",
          "type": "uint256"
        },
        {
          "components": [
            {
              "internalType": "string",
              "name": "url",
              "type": "string"
            },
            {
              "internalType": "string",
              "name": "title",
              "type": "string"
            },
            {
              "internalType": "string",
              "name": "description",
              "type": "string"
            },
            {
              "internalType": "string",
              "name": "category",
              "type": "string"
            },
            {
              "internalType": "bool",
              "name": "isActive",
              "type": "bool"
            }
          ],
          "internalType": "struct Gamoly.Stream",
          "name": "_stream",
          "type": "tuple"
        }
      ],
      "name": "setStream",
      "outputs": [],
      "stateMutability": "nonpayable",
      "type": "function"
    },
    {
      "inputs": [],
      "name": "getLiveUsers",
      "outputs": [
        {
          "components": [
            {
              "components": [
                {
                  "internalType": "string",
                  "name": "url",
                  "type": "string"
                },
                {
                  "internalType": "string",
                  "name": "title",
                  "type": "string"
                },
                {
                  "internalType": "string",
                  "name": "description",
                  "type": "string"
                },
                {
                  "internalType": "string",
                  "name": "category",
                  "type": "string"
                },
                {
                  "internalType": "bool",
                  "name": "isActive",
                  "type": "bool"
                }
              ],
              "internalType": "struct Gamoly.Stream",
              "name": "stream",
              "type": "tuple"
            },
            {
              "internalType": "string",
              "name": "name",
              "type": "string"
            },
            {
              "internalType": "string",
              "name": "avatar",
              "type": "string"
            },
            {
              "internalType": "uint256",
              "name": "index",
              "type": "uint256"
            }
          ],
          "internalType": "struct Gamoly.User[]",
          "name": "user",
          "type": "tuple[]"
        }
      ],
      "stateMutability": "view",
      "type": "function",
      "constant": true
    },
    {
      "inputs": [
        {
          "internalType": "string",
          "name": "name",
          "type": "string"
        },
        {
          "internalType": "string",
          "name": "description",
          "type": "string"
        },
        {
          "internalType": "address",
          "name": "nftContract",
          "type": "address"
        },
        {
          "internalType": "uint256",
          "name": "nftId",
          "type": "uint256"
        },
        {
          "internalType": "uint256",
          "name": "price",
          "type": "uint256"
        }
      ],
      "name": "createNFT",
      "outputs": [],
      "stateMutability": "payable",
      "type": "function",
      "payable": true
    },
    {
      "inputs": [
        {
          "internalType": "address",
          "name": "_admin",
          "type": "address"
        }
      ],
      "name": "getNFT",
      "outputs": [
        {
          "components": [
            {
              "internalType": "uint256",
              "name": "itemId",
              "type": "uint256"
            },
            {
              "internalType": "address",
              "name": "nftContract",
              "type": "address"
            },
            {
              "internalType": "uint256",
              "name": "tokenId",
              "type": "uint256"
            },
            {
              "internalType": "address payable",
              "name": "seller",
              "type": "address"
            },
            {
              "internalType": "address payable",
              "name": "admin",
              "type": "address"
            },
            {
              "internalType": "uint256",
              "name": "price",
              "type": "uint256"
            }
          ],
          "internalType": "struct Gamoly.NFT",
          "name": "nft",
          "type": "tuple"
        }
      ],
      "stateMutability": "view",
      "type": "function",
      "constant": true
    }
  ],
  "bytecode": "0x60806040523480156200001157600080fd5b50604051620031193803806200311983398181016040528101906200003791906200009e565b600160008190555080600760006101000a81548173ffffffffffffffffffffffffffffffffffffffff021916908373ffffffffffffffffffffffffffffffffffffffff1602179055505062000118565b6000815190506200009881620000fe565b92915050565b600060208284031215620000b157600080fd5b6000620000c18482850162000087565b91505092915050565b6000620000d782620000de565b9050919050565b600073ffffffffffffffffffffffffffffffffffffffff82169050919050565b6200010981620000ca565b81146200011557600080fd5b50565b612ff180620001286000396000f3fe60806040526004361061009c5760003560e01c806395d955e21161006457806395d955e21461019d57806395fc4f3b146101dd5780639af56f5f1461021f578063a87430ba14610248578063d43dabba14610288578063de6d00e5146102b35761009c565b80630af2c6ca146100a15780630e3c9460146100cc578063161a6c1e146100f55780636d4ce63c1461013257806374a5a41b1461015d575b600080fd5b3480156100ad57600080fd5b506100b66102cf565b6040516100c39190612b87565b60405180910390f35b3480156100d857600080fd5b506100f360048036038101906100ee9190612510565b6102d5565b005b34801561010157600080fd5b5061011c60048036038101906101179190612440565b610519565b6040516101299190612af0565b60405180910390f35b34801561013e57600080fd5b50610147610692565b6040516101549190612b65565b60405180910390f35b34801561016957600080fd5b50610184600480360381019061017f9190612440565b610a8e565b6040516101949493929190612b0b565b60405180910390f35b3480156101a957600080fd5b506101c460048036038101906101bf9190612440565b610e3b565b6040516101d49493929190612b0b565b60405180910390f35b3480156101e957600080fd5b5061020460048036038101906101ff9190612551565b6111e8565b60405161021696959493929190612ba2565b60405180910390f35b34801561022b57600080fd5b506102466004803603810190610241919061257a565b611294565b005b34801561025457600080fd5b5061026f600480360381019061026a9190612440565b611420565b60405161027f9493929190612b0b565b60405180910390f35b34801561029457600080fd5b5061029d6117cd565b6040516102aa9190612a6e565b60405180910390f35b6102cd60048036038101906102c89190612469565b611ced565b005b600c5481565b6102df6009612057565b6102e9600961206d565b81606001818152505080600160003373ffffffffffffffffffffffffffffffffffffffff1673ffffffffffffffffffffffffffffffffffffffff168152602001908152602001600020600082015181600001600082015181600001908051906020019061035792919061207b565b50602082015181600101908051906020019061037492919061207b565b50604082015181600201908051906020019061039192919061207b565b5060608201518160030190805190602001906103ae92919061207b565b5060808201518160040160006101000a81548160ff021916908315150217905550505060208201518160050190805190602001906103ed92919061207b565b50604082015181600601908051906020019061040a92919061207b565b5060608201518160070155905050806002600083606001518152602001908152602001600020600082015181600001600082015181600001908051906020019061045592919061207b565b50602082015181600101908051906020019061047292919061207b565b50604082015181600201908051906020019061048f92919061207b565b5060608201518160030190805190602001906104ac92919061207b565b5060808201518160040160006101000a81548160ff021916908315150217905550505060208201518160050190805190602001906104eb92919061207b565b50604082015181600601908051906020019061050892919061207b565b506060820151816007015590505050565b610521612101565b600560008373ffffffffffffffffffffffffffffffffffffffff1673ffffffffffffffffffffffffffffffffffffffff1681526020019081526020016000206040518060c0016040529081600082015481526020016001820160009054906101000a900473ffffffffffffffffffffffffffffffffffffffff1673ffffffffffffffffffffffffffffffffffffffff1673ffffffffffffffffffffffffffffffffffffffff168152602001600282015481526020016003820160009054906101000a900473ffffffffffffffffffffffffffffffffffffffff1673ffffffffffffffffffffffffffffffffffffffff1673ffffffffffffffffffffffffffffffffffffffff1681526020016004820160009054906101000a900473ffffffffffffffffffffffffffffffffffffffff1673ffffffffffffffffffffffffffffffffffffffff1673ffffffffffffffffffffffffffffffffffffffff1681526020016005820154815250509050919050565b61069a612179565b600160003373ffffffffffffffffffffffffffffffffffffffff1673ffffffffffffffffffffffffffffffffffffffff168152602001908152602001600020604051806080016040529081600082016040518060a001604052908160008201805461070490612db1565b80601f016020809104026020016040519081016040528092919081815260200182805461073090612db1565b801561077d5780601f106107525761010080835404028352916020019161077d565b820191906000526020600020905b81548152906001019060200180831161076057829003601f168201915b5050505050815260200160018201805461079690612db1565b80601f01602080910402602001604051908101604052809291908181526020018280546107c290612db1565b801561080f5780601f106107e45761010080835404028352916020019161080f565b820191906000526020600020905b8154815290600101906020018083116107f257829003601f168201915b5050505050815260200160028201805461082890612db1565b80601f016020809104026020016040519081016040528092919081815260200182805461085490612db1565b80156108a15780601f10610876576101008083540402835291602001916108a1565b820191906000526020600020905b81548152906001019060200180831161088457829003601f168201915b505050505081526020016003820180546108ba90612db1565b80601f01602080910402602001604051908101604052809291908181526020018280546108e690612db1565b80156109335780601f1061090857610100808354040283529160200191610933565b820191906000526020600020905b81548152906001019060200180831161091657829003601f168201915b505050505081526020016004820160009054906101000a900460ff161515151581525050815260200160058201805461096b90612db1565b80601f016020809104026020016040519081016040528092919081815260200182805461099790612db1565b80156109e45780601f106109b9576101008083540402835291602001916109e4565b820191906000526020600020905b8154815290600101906020018083116109c757829003601f168201915b505050505081526020016006820180546109fd90612db1565b80601f0160208091040260200160405190810160405280929190818152602001828054610a2990612db1565b8015610a765780601f10610a4b57610100808354040283529160200191610a76565b820191906000526020600020905b815481529060010190602001808311610a5957829003601f168201915b50505050508152602001600782015481525050905090565b6004602052806000526040600020600091509050806000016040518060a0016040529081600082018054610ac190612db1565b80601f0160208091040260200160405190810160405280929190818152602001828054610aed90612db1565b8015610b3a5780601f10610b0f57610100808354040283529160200191610b3a565b820191906000526020600020905b815481529060010190602001808311610b1d57829003601f168201915b50505050508152602001600182018054610b5390612db1565b80601f0160208091040260200160405190810160405280929190818152602001828054610b7f90612db1565b8015610bcc5780601f10610ba157610100808354040283529160200191610bcc565b820191906000526020600020905b815481529060010190602001808311610baf57829003601f168201915b50505050508152602001600282018054610be590612db1565b80601f0160208091040260200160405190810160405280929190818152602001828054610c1190612db1565b8015610c5e5780601f10610c3357610100808354040283529160200191610c5e565b820191906000526020600020905b815481529060010190602001808311610c4157829003601f168201915b50505050508152602001600382018054610c7790612db1565b80601f0160208091040260200160405190810160405280929190818152602001828054610ca390612db1565b8015610cf05780601f10610cc557610100808354040283529160200191610cf0565b820191906000526020600020905b815481529060010190602001808311610cd357829003601f168201915b505050505081526020016004820160009054906101000a900460ff16151515158152505090806005018054610d2490612db1565b80601f0160208091040260200160405190810160405280929190818152602001828054610d5090612db1565b8015610d9d5780601f10610d7257610100808354040283529160200191610d9d565b820191906000526020600020905b815481529060010190602001808311610d8057829003601f168201915b505050505090806006018054610db290612db1565b80601f0160208091040260200160405190810160405280929190818152602001828054610dde90612db1565b8015610e2b5780601f10610e0057610100808354040283529160200191610e2b565b820191906000526020600020905b815481529060010190602001808311610e0e57829003601f168201915b5050505050908060070154905084565b6003602052806000526040600020600091509050806000016040518060a0016040529081600082018054610e6e90612db1565b80601f0160208091040260200160405190810160405280929190818152602001828054610e9a90612db1565b8015610ee75780601f10610ebc57610100808354040283529160200191610ee7565b820191906000526020600020905b815481529060010190602001808311610eca57829003601f168201915b50505050508152602001600182018054610f0090612db1565b80601f0160208091040260200160405190810160405280929190818152602001828054610f2c90612db1565b8015610f795780601f10610f4e57610100808354040283529160200191610f79565b820191906000526020600020905b815481529060010190602001808311610f5c57829003601f168201915b50505050508152602001600282018054610f9290612db1565b80601f0160208091040260200160405190810160405280929190818152602001828054610fbe90612db1565b801561100b5780601f10610fe05761010080835404028352916020019161100b565b820191906000526020600020905b815481529060010190602001808311610fee57829003601f168201915b5050505050815260200160038201805461102490612db1565b80601f016020809104026020016040519081016040528092919081815260200182805461105090612db1565b801561109d5780601f106110725761010080835404028352916020019161109d565b820191906000526020600020905b81548152906001019060200180831161108057829003601f168201915b505050505081526020016004820160009054906101000a900460ff161515151581525050908060050180546110d190612db1565b80601f01602080910402602001604051908101604052809291908181526020018280546110fd90612db1565b801561114a5780601f1061111f5761010080835404028352916020019161114a565b820191906000526020600020905b81548152906001019060200180831161112d57829003601f168201915b50505050509080600601805461115f90612db1565b80601f016020809104026020016040519081016040528092919081815260200182805461118b90612db1565b80156111d85780601f106111ad576101008083540402835291602001916111d8565b820191906000526020600020905b8154815290600101906020018083116111bb57829003601f168201915b5050505050908060070154905084565b600b81815481106111f857600080fd5b90600052602060002090600602016000915090508060000154908060010160009054906101000a900473ffffffffffffffffffffffffffffffffffffffff16908060020154908060030160009054906101000a900473ffffffffffffffffffffffffffffffffffffffff16908060040160009054906101000a900473ffffffffffffffffffffffffffffffffffffffff16908060050154905086565b80600160003373ffffffffffffffffffffffffffffffffffffffff1673ffffffffffffffffffffffffffffffffffffffff16815260200190815260200160002060000160008201518160000190805190602001906112f392919061207b565b50602082015181600101908051906020019061131092919061207b565b50604082015181600201908051906020019061132d92919061207b565b50606082015181600301908051906020019061134a92919061207b565b5060808201518160040160006101000a81548160ff021916908315150217905550905050806002600084815260200190815260200160002060000160008201518160000190805190602001906113a192919061207b565b5060208201518160010190805190602001906113be92919061207b565b5060408201518160020190805190602001906113db92919061207b565b5060608201518160030190805190602001906113f892919061207b565b5060808201518160040160006101000a81548160ff0219169083151502179055509050505050565b6001602052806000526040600020600091509050806000016040518060a001604052908160008201805461145390612db1565b80601f016020809104026020016040519081016040528092919081815260200182805461147f90612db1565b80156114cc5780601f106114a1576101008083540402835291602001916114cc565b820191906000526020600020905b8154815290600101906020018083116114af57829003601f168201915b505050505081526020016001820180546114e590612db1565b80601f016020809104026020016040519081016040528092919081815260200182805461151190612db1565b801561155e5780601f106115335761010080835404028352916020019161155e565b820191906000526020600020905b81548152906001019060200180831161154157829003601f168201915b5050505050815260200160028201805461157790612db1565b80601f01602080910402602001604051908101604052809291908181526020018280546115a390612db1565b80156115f05780601f106115c5576101008083540402835291602001916115f0565b820191906000526020600020905b8154815290600101906020018083116115d357829003601f168201915b5050505050815260200160038201805461160990612db1565b80601f016020809104026020016040519081016040528092919081815260200182805461163590612db1565b80156116825780601f1061165757610100808354040283529160200191611682565b820191906000526020600020905b81548152906001019060200180831161166557829003601f168201915b505050505081526020016004820160009054906101000a900460ff161515151581525050908060050180546116b690612db1565b80601f01602080910402602001604051908101604052809291908181526020018280546116e290612db1565b801561172f5780601f106117045761010080835404028352916020019161172f565b820191906000526020600020905b81548152906001019060200180831161171257829003601f168201915b50505050509080600601805461174490612db1565b80601f016020809104026020016040519081016040528092919081815260200182805461177090612db1565b80156117bd5780601f10611792576101008083540402835291602001916117bd565b820191906000526020600020905b8154815290600101906020018083116117a057829003601f168201915b5050505050908060070154905084565b606060006117db600961206d565b90506000600a90506000808267ffffffffffffffff811115611826577f4e487b7100000000000000000000000000000000000000000000000000000000600052604160045260246000fd5b60405190808252806020026020018201604052801561185f57816020015b61184c612179565b8152602001906001900390816118445790505b50905060005b84811015611ce25760011515600260006001846118829190612cbf565b815260200190815260200160002060000160040160009054906101000a900460ff1615151415611ccf57600260006001836118bd9190612cbf565b8152602001908152602001600020604051806080016040529081600082016040518060a00160405290816000820180546118f690612db1565b80601f016020809104026020016040519081016040528092919081815260200182805461192290612db1565b801561196f5780601f106119445761010080835404028352916020019161196f565b820191906000526020600020905b81548152906001019060200180831161195257829003601f168201915b5050505050815260200160018201805461198890612db1565b80601f01602080910402602001604051908101604052809291908181526020018280546119b490612db1565b8015611a015780601f106119d657610100808354040283529160200191611a01565b820191906000526020600020905b8154815290600101906020018083116119e457829003601f168201915b50505050508152602001600282018054611a1a90612db1565b80601f0160208091040260200160405190810160405280929190818152602001828054611a4690612db1565b8015611a935780601f10611a6857610100808354040283529160200191611a93565b820191906000526020600020905b815481529060010190602001808311611a7657829003601f168201915b50505050508152602001600382018054611aac90612db1565b80601f0160208091040260200160405190810160405280929190818152602001828054611ad890612db1565b8015611b255780601f10611afa57610100808354040283529160200191611b25565b820191906000526020600020905b815481529060010190602001808311611b0857829003601f168201915b505050505081526020016004820160009054906101000a900460ff1615151515815250508152602001600582018054611b5d90612db1565b80601f0160208091040260200160405190810160405280929190818152602001828054611b8990612db1565b8015611bd65780601f10611bab57610100808354040283529160200191611bd6565b820191906000526020600020905b815481529060010190602001808311611bb957829003601f168201915b50505050508152602001600682018054611bef90612db1565b80601f0160208091040260200160405190810160405280929190818152602001828054611c1b90612db1565b8015611c685780601f10611c3d57610100808354040283529160200191611c68565b820191906000526020600020905b815481529060010190602001808311611c4b57829003601f168201915b50505050508152602001600782015481525050828481518110611cb4577f4e487b7100000000000000000000000000000000000000000000000000000000600052603260045260246000fd5b6020026020010181905250600183611ccc9190612cbf565b92505b8080611cda90612e14565b915050611865565b508094505050505090565b60026000541415611d33576040517f08c379a0000000000000000000000000000000000000000000000000000000008152600401611d2a90612ad0565b60405180910390fd5b6002600081905550600760009054906101000a900473ffffffffffffffffffffffffffffffffffffffff1673ffffffffffffffffffffffffffffffffffffffff163373ffffffffffffffffffffffffffffffffffffffff1614611dcb576040517f08c379a0000000000000000000000000000000000000000000000000000000008152600401611dc290612ab0565b60405180910390fd5b60008111611e0e576040517f08c379a0000000000000000000000000000000000000000000000000000000008152600401611e0590612a90565b60405180910390fd5b7fd6896bf6b58a373f3507be627a6c1665b85853a848393258c850171275e5016d3383604051611e3f929190612a45565b60405180910390a1611e516008612057565b6000611e5d600861206d565b90508373ffffffffffffffffffffffffffffffffffffffff166323b872dd3330866040518463ffffffff1660e01b8152600401611e9c93929190612a0e565b600060405180830381600087803b158015611eb657600080fd5b505af1158015611eca573d6000803e3d6000fd5b505050506040518060c001604052808281526020018573ffffffffffffffffffffffffffffffffffffffff1681526020018481526020013373ffffffffffffffffffffffffffffffffffffffff168152602001600073ffffffffffffffffffffffffffffffffffffffff16815260200183815250600660008381526020019081526020016000206000820151816000015560208201518160010160006101000a81548173ffffffffffffffffffffffffffffffffffffffff021916908373ffffffffffffffffffffffffffffffffffffffff1602179055506040820151816002015560608201518160030160006101000a81548173ffffffffffffffffffffffffffffffffffffffff021916908373ffffffffffffffffffffffffffffffffffffffff16021790555060808201518160040160006101000a81548173ffffffffffffffffffffffffffffffffffffffff021916908373ffffffffffffffffffffffffffffffffffffffff16021790555060a082015181600501559050505060016000819055505050505050565b6001816000016000828254019250508190555050565b600081600001549050919050565b82805461208790612db1565b90600052602060002090601f0160209004810192826120a957600085556120f0565b82601f106120c257805160ff19168380011785556120f0565b828001600101855582156120f0579182015b828111156120ef5782518255916020019190600101906120d4565b5b5090506120fd91906121a7565b5090565b6040518060c0016040528060008152602001600073ffffffffffffffffffffffffffffffffffffffff16815260200160008152602001600073ffffffffffffffffffffffffffffffffffffffff168152602001600073ffffffffffffffffffffffffffffffffffffffff168152602001600081525090565b604051806080016040528061218c6121c4565b81526020016060815260200160608152602001600081525090565b5b808211156121c05760008160009055506001016121a8565b5090565b6040518060a00160405280606081526020016060815260200160608152602001606081526020016000151581525090565b600061220861220384612c28565b612c03565b90508281526020810184848401111561222057600080fd5b61222b848285612d6f565b509392505050565b60008135905061224281612f76565b92915050565b60008135905061225781612f8d565b92915050565b600082601f83011261226e57600080fd5b813561227e8482602086016121f5565b91505092915050565b600060a0828403121561229957600080fd5b6122a360a0612c03565b9050600082013567ffffffffffffffff8111156122bf57600080fd5b6122cb8482850161225d565b600083015250602082013567ffffffffffffffff8111156122eb57600080fd5b6122f78482850161225d565b602083015250604082013567ffffffffffffffff81111561231757600080fd5b6123238482850161225d565b604083015250606082013567ffffffffffffffff81111561234357600080fd5b61234f8482850161225d565b606083015250608061236384828501612248565b60808301525092915050565b60006080828403121561238157600080fd5b61238b6080612c03565b9050600082013567ffffffffffffffff8111156123a757600080fd5b6123b384828501612287565b600083015250602082013567ffffffffffffffff8111156123d357600080fd5b6123df8482850161225d565b602083015250604082013567ffffffffffffffff8111156123ff57600080fd5b61240b8482850161225d565b604083015250606061241f8482850161242b565b60608301525092915050565b60008135905061243a81612fa4565b92915050565b60006020828403121561245257600080fd5b600061246084828501612233565b91505092915050565b600080600080600060a0868803121561248157600080fd5b600086013567ffffffffffffffff81111561249b57600080fd5b6124a78882890161225d565b955050602086013567ffffffffffffffff8111156124c457600080fd5b6124d08882890161225d565b94505060406124e188828901612233565b93505060606124f28882890161242b565b92505060806125038882890161242b565b9150509295509295909350565b60006020828403121561252257600080fd5b600082013567ffffffffffffffff81111561253c57600080fd5b6125488482850161236f565b91505092915050565b60006020828403121561256357600080fd5b60006125718482850161242b565b91505092915050565b6000806040838503121561258d57600080fd5b600061259b8582860161242b565b925050602083013567ffffffffffffffff8111156125b857600080fd5b6125c485828601612287565b9150509250929050565b60006125da838361290e565b905092915050565b6125eb81612d27565b82525050565b6125fa81612d27565b82525050565b61260981612d15565b82525050565b61261881612d15565b82525050565b600061262982612c69565b6126338185612c8c565b93508360208202850161264585612c59565b8060005b85811015612681578484038952815161266285826125ce565b945061266d83612c7f565b925060208a01995050600181019050612649565b50829750879550505050505092915050565b61269c81612d39565b82525050565b60006126ad82612c74565b6126b78185612c9d565b93506126c7818560208601612d7e565b6126d081612eea565b840191505092915050565b60006126e682612c74565b6126f08185612cae565b9350612700818560208601612d7e565b61270981612eea565b840191505092915050565b6000612721601b83612cae565b915061272c82612efb565b602082019050919050565b6000612744601383612cae565b915061274f82612f24565b602082019050919050565b6000612767601f83612cae565b915061277282612f4d565b602082019050919050565b60c08201600082015161279360008501826129f0565b5060208201516127a66020850182612600565b5060408201516127b960408501826129f0565b5060608201516127cc60608501826125e2565b5060808201516127df60808501826125e2565b5060a08201516127f260a08501826129f0565b50505050565b600060a083016000830151848203600086015261281582826126a2565b9150506020830151848203602086015261282f82826126a2565b9150506040830151848203604086015261284982826126a2565b9150506060830151848203606086015261286382826126a2565b91505060808301516128786080860182612693565b508091505092915050565b600060a08301600083015184820360008601526128a082826126a2565b915050602083015184820360208601526128ba82826126a2565b915050604083015184820360408601526128d482826126a2565b915050606083015184820360608601526128ee82826126a2565b91505060808301516129036080860182612693565b508091505092915050565b6000608083016000830151848203600086015261292b82826127f8565b9150506020830151848203602086015261294582826126a2565b9150506040830151848203604086015261295f82826126a2565b915050606083015161297460608601826129f0565b508091505092915050565b6000608083016000830151848203600086015261299c82826127f8565b915050602083015184820360208601526129b682826126a2565b915050604083015184820360408601526129d082826126a2565b91505060608301516129e560608601826129f0565b508091505092915050565b6129f981612d65565b82525050565b612a0881612d65565b82525050565b6000606082019050612a23600083018661260f565b612a30602083018561260f565b612a3d60408301846129ff565b949350505050565b6000604082019050612a5a600083018561260f565b612a6760208301846129ff565b9392505050565b60006020820190508181036000830152612a88818461261e565b905092915050565b60006020820190508181036000830152612aa981612714565b9050919050565b60006020820190508181036000830152612ac981612737565b9050919050565b60006020820190508181036000830152612ae98161275a565b9050919050565b600060c082019050612b05600083018461277d565b92915050565b60006080820190508181036000830152612b258187612883565b90508181036020830152612b3981866126db565b90508181036040830152612b4d81856126db565b9050612b5c60608301846129ff565b95945050505050565b60006020820190508181036000830152612b7f818461297f565b905092915050565b6000602082019050612b9c60008301846129ff565b92915050565b600060c082019050612bb760008301896129ff565b612bc4602083018861260f565b612bd160408301876129ff565b612bde60608301866125f1565b612beb60808301856125f1565b612bf860a08301846129ff565b979650505050505050565b6000612c0d612c1e565b9050612c198282612de3565b919050565b6000604051905090565b600067ffffffffffffffff821115612c4357612c42612ebb565b5b612c4c82612eea565b9050602081019050919050565b6000819050602082019050919050565b600081519050919050565b600081519050919050565b6000602082019050919050565b600082825260208201905092915050565b600082825260208201905092915050565b600082825260208201905092915050565b6000612cca82612d65565b9150612cd583612d65565b9250827fffffffffffffffffffffffffffffffffffffffffffffffffffffffffffffffff03821115612d0a57612d09612e5d565b5b828201905092915050565b6000612d2082612d45565b9050919050565b6000612d3282612d45565b9050919050565b60008115159050919050565b600073ffffffffffffffffffffffffffffffffffffffff82169050919050565b6000819050919050565b82818337600083830152505050565b60005b83811015612d9c578082015181840152602081019050612d81565b83811115612dab576000848401525b50505050565b60006002820490506001821680612dc957607f821691505b60208210811415612ddd57612ddc612e8c565b5b50919050565b612dec82612eea565b810181811067ffffffffffffffff82111715612e0b57612e0a612ebb565b5b80604052505050565b6000612e1f82612d65565b91507fffffffffffffffffffffffffffffffffffffffffffffffffffffffffffffffff821415612e5257612e51612e5d565b5b600182019050919050565b7f4e487b7100000000000000000000000000000000000000000000000000000000600052601160045260246000fd5b7f4e487b7100000000000000000000000000000000000000000000000000000000600052602260045260246000fd5b7f4e487b7100000000000000000000000000000000000000000000000000000000600052604160045260246000fd5b6000601f19601f8301169050919050565b7f50726963652073686f756c642062652061746c65617374203120210000000000600082015250565b7f53656e646572206973206e6f742061646d696e00000000000000000000000000600082015250565b7f5265656e7472616e637947756172643a207265656e7472616e742063616c6c00600082015250565b612f7f81612d15565b8114612f8a57600080fd5b50565b612f9681612d39565b8114612fa157600080fd5b50565b612fad81612d65565b8114612fb857600080fd5b5056fea26469706673582212201921deb68ea8bdffbd130a995226918ab3b61b468e0b2eb6f1b703f84a96a89264736f6c63430008030033",
  "immutableReferences": {},
  "source": "pragma solidity ^0.8.3;\npragma experimental ABIEncoderV2;\n// SPDX-License-Identifier: MIT\nimport \"@openzeppelin/contracts/utils/Counters.sol\";\nimport \"@openzeppelin/contracts/token/ERC721/extensions/ERC721URIStorage.sol\";\nimport \"@openzeppelin/contracts/security/ReentrancyGuard.sol\";\nimport \"@openzeppelin/contracts/token/ERC721/ERC721.sol\";\n\ncontract Gamoly is ReentrancyGuard {\n    using Counters for Counters.Counter;\n\n    mapping(address => User) public users;\n    mapping(uint256 => User) idToUser;\n    mapping(address => User) public followers;\n    mapping(address => User) public following;\n    mapping(address => NFT) totalNFT;\n    mapping(uint256 => NFT) idToNFT;\n    address payable admin;\n    Counters.Counter private _nftId;\n    Counters.Counter private _userCount;\n    Counters.Counter private _itemsSold;\n\n    constructor (address payable _admin) public {\n        admin = _admin;\n    }\n\n\n    struct User {\n        Stream stream;\n        string name;\n        string avatar;\n        uint256 index;\n    }\n\n    struct Stream {\n        string url;\n        string title;\n        string description;\n        string category;\n        bool isActive;\n    }\n\n    function get() public view returns (User memory user) {\n        return users[msg.sender];\n    }\n\n    function set(User memory _user) public {\n        _userCount.increment();\n        _user.index = _userCount.current();\n        users[msg.sender] = _user;\n        idToUser[_user.index] = _user;\n    }\n\n    function setStream(uint256 index, Stream memory _stream) public {\n        users[msg.sender].stream = _stream;\n        idToUser[index].stream = _stream;\n    }\n\n    function getLiveUsers() public view returns (User[] memory user) {\n        uint totalItemCount = _userCount.current();\n        uint itemCount = 10;\n        uint currentIndex = 0;\n\n        User[] memory liveUsers = new User[](itemCount);\n        for (uint i = 0; i < totalItemCount; i++) {\n            if (idToUser[i + 1].stream.isActive == true) {\n                liveUsers[currentIndex] = idToUser[i + 1];\n                currentIndex += 1;\n            }\n        }\n        return liveUsers;\n    }\n\n    //----Market place contract\n\n    NFT[] public NFTlist;\n\n    event MarketItemCreated (\n        uint indexed itemId,\n        address indexed nftContract,\n        uint256 indexed nftId,\n        address seller,\n        address admin,\n        uint256 price\n    );\n\n\n    uint256 public nftCount;\n\n\n    struct NFT {\n        uint itemId;\n        address nftContract;\n        uint256 tokenId;\n        address payable seller;\n        address payable admin;\n        uint256 price;\n    }\n\n\n    event Message (\n        address from,\n        uint256 tokenId\n    );\n\n    function createNFT(string memory name, string memory description, address nftContract, uint256 nftId, uint256 price)public payable nonReentrant  {\n        require(msg.sender == admin, \"Sender is not admin\");\n        require(price > 0, \"Price should be atleast 1 !\");\n        emit Message(msg.sender, nftId);\n        _nftId.increment();\n        uint256 itemId = _nftId.current();\n\n        IERC721(nftContract).transferFrom(msg.sender, address(this), nftId);\n\n        idToNFT[itemId] = NFT(\n            itemId,\n            nftContract,\n            nftId,\n            payable(msg.sender),\n            payable(address(0)),\n            price\n        );\n    }\n\n    //    function sellNFT()\n\n    function getNFT(address _admin) public view returns (NFT memory nft){\n        return totalNFT[_admin];\n    }\n\n}\n\n",
  "sourcePath": "/Users/ravinderkumar/WebstormProjects/video-streaming/contracts/Gamoly.sol",
  "compiler": {
    "name": "solc",
    "version": "0.8.3+commit.8d00100c.Emscripten.clang"
  },
  "schemaVersion": "3.4.6",
  "updatedAt": "2022-03-26T11:32:15.781Z",
  "networkType": "ethereum",
  "devdoc": {
    "kind": "dev",
    "methods": {},
    "version": 1
  },
  "userdoc": {
    "kind": "user",
    "methods": {},
    "version": 1
  }
}