{
  "contractName": "Marketplace",
  "abi": [
    {
      "constant": true,
      "inputs": [
        {
          "internalType": "uint256",
          "name": "",
          "type": "uint256"
        }
      ],
      "name": "NFTlist",
      "outputs": [
        {
          "internalType": "string",
          "name": "name",
          "type": "string"
        },
        {
          "internalType": "string",
          "name": "description",
          "type": "string"
        },
        {
          "internalType": "string",
          "name": "url",
          "type": "string"
        },
        {
          "internalType": "uint256",
          "name": "price",
          "type": "uint256"
        },
        {
          "internalType": "address",
          "name": "owner",
          "type": "address"
        }
      ],
      "payable": false,
      "stateMutability": "view",
      "type": "function"
    },
    {
      "constant": false,
      "inputs": [
        {
          "internalType": "string",
          "name": "_name",
          "type": "string"
        },
        {
          "internalType": "string",
          "name": "_description",
          "type": "string"
        },
        {
          "internalType": "string",
          "name": "_url",
          "type": "string"
        },
        {
          "internalType": "uint256",
          "name": "_price",
          "type": "uint256"
        },
        {
          "internalType": "address",
          "name": "_owner",
          "type": "address"
        }
      ],
      "name": "createNFT",
      "outputs": [
        {
          "components": [
            {
              "internalType": "string",
              "name": "name",
              "type": "string"
            },
            {
              "internalType": "string",
              "name": "description",
              "type": "string"
            },
            {
              "internalType": "string",
              "name": "url",
              "type": "string"
            },
            {
              "internalType": "uint256",
              "name": "price",
              "type": "uint256"
            },
            {
              "internalType": "address",
              "name": "owner",
              "type": "address"
            }
          ],
          "internalType": "struct Marketplace.NFT",
          "name": "nft",
          "type": "tuple"
        }
      ],
      "payable": false,
      "stateMutability": "nonpayable",
      "type": "function"
    },
    {
      "constant": true,
      "inputs": [
        {
          "internalType": "address",
          "name": "_owner",
          "type": "address"
        }
      ],
      "name": "getNFT",
      "outputs": [
        {
          "components": [
            {
              "internalType": "string",
              "name": "name",
              "type": "string"
            },
            {
              "internalType": "string",
              "name": "description",
              "type": "string"
            },
            {
              "internalType": "string",
              "name": "url",
              "type": "string"
            },
            {
              "internalType": "uint256",
              "name": "price",
              "type": "uint256"
            },
            {
              "internalType": "address",
              "name": "owner",
              "type": "address"
            }
          ],
          "internalType": "struct Marketplace.NFT",
          "name": "nft",
          "type": "tuple"
        }
      ],
      "payable": false,
      "stateMutability": "view",
      "type": "function"
    }
  ],
  "bytecode": "0x608060405234801561001057600080fd5b50610cec806100206000396000f3fe608060405234801561001057600080fd5b50600436106100415760003560e01c806314e5ce3214610046578063161a6c1e1461006f57806395fc4f3b14610082575b600080fd5b6100596100543660046109b9565b6100a6565b6040516100669190610bbe565b60405180910390f35b61005961007d366004610993565b610447565b610095610090366004610a75565b61065a565b604051610066959493929190610b5f565b6100ae610850565b6040805160a0810182528781526020808201889052918101869052606081018590526001600160a01b0384166080820152600080546001810180835591805282518051929460059092027f290decd9548b62a8d60345a988386fc84ba6bc95484008f6362f93160ef3e56301926101289284920190610888565b5060208281015180516101419260018501920190610888565b506040820151805161015d916002840191602090910190610888565b5060608201516003820155608090910151600490910180546001600160a01b0319166001600160a01b0390921691909117905550610199610850565b6000805460001981019081106101ab57fe5b600091825260209182902060408051600593909302909101805460026001821615610100026000190190911604601f8101859004909402830160c090810190925260a083018481529293909284929091849184018282801561024e5780601f106102235761010080835404028352916020019161024e565b820191906000526020600020905b81548152906001019060200180831161023157829003601f168201915b50505050508152602001600182018054600181600116156101000203166002900480601f0160208091040260200160405190810160405280929190818152602001828054600181600116156101000203166002900480156102f05780601f106102c5576101008083540402835291602001916102f0565b820191906000526020600020905b8154815290600101906020018083116102d357829003601f168201915b5050509183525050600282810180546040805160206001841615610100026000190190931694909404601f810183900483028501830190915280845293810193908301828280156103825780601f1061035757610100808354040283529160200191610382565b820191906000526020600020905b81548152906001019060200180831161036557829003601f168201915b505050918352505060038201546020808301919091526004909201546001600160a01b0390811660409283015286166000908152600183522082518051939450849391926103d592849290910190610888565b5060208281015180516103ee9260018501920190610888565b506040820151805161040a916002840191602090910190610888565b5060608201516003820155608090910151600490910180546001600160a01b0319166001600160a01b039092169190911790559695505050505050565b61044f610850565b6001600160a01b0382166000908152600160208181526040928390208351815460029481161561010002600019011693909304601f8101839004909202830160c090810190945260a0830182815292939092849290918491908401828280156104f95780601f106104ce576101008083540402835291602001916104f9565b820191906000526020600020905b8154815290600101906020018083116104dc57829003601f168201915b50505050508152602001600182018054600181600116156101000203166002900480601f01602080910402602001604051908101604052809291908181526020018280546001816001161561010002031660029004801561059b5780601f106105705761010080835404028352916020019161059b565b820191906000526020600020905b81548152906001019060200180831161057e57829003601f168201915b5050509183525050600282810180546040805160206001841615610100026000190190931694909404601f8101839004830285018301909152808452938101939083018282801561062d5780601f106106025761010080835404028352916020019161062d565b820191906000526020600020905b81548152906001019060200180831161061057829003601f168201915b5050509183525050600382015460208201526004909101546001600160a01b031660409091015292915050565b6000818154811061066757fe5b60009182526020918290206005919091020180546040805160026001841615610100026000190190931692909204601f8101859004850283018501909152808252919350918391908301828280156107005780601f106106d557610100808354040283529160200191610700565b820191906000526020600020905b8154815290600101906020018083116106e357829003601f168201915b505050505090806001018054600181600116156101000203166002900480601f01602080910402602001604051908101604052809291908181526020018280546001816001161561010002031660029004801561079e5780601f106107735761010080835404028352916020019161079e565b820191906000526020600020905b81548152906001019060200180831161078157829003601f168201915b50505060028085018054604080516020601f60001961010060018716150201909416959095049283018590048502810185019091528181529596959450909250908301828280156108305780601f1061080557610100808354040283529160200191610830565b820191906000526020600020905b81548152906001019060200180831161081357829003601f168201915b5050505060038301546004909301549192916001600160a01b0316905085565b6040518060a001604052806060815260200160608152602001606081526020016000815260200160006001600160a01b031681525090565b828054600181600116156101000203166002900490600052602060002090601f016020900481019282601f106108c957805160ff19168380011785556108f6565b828001600101855582156108f6579182015b828111156108f65782518255916020019190600101906108db565b50610902929150610906565b5090565b61092091905b80821115610902576000815560010161090c565b90565b803561092e81610c89565b92915050565b600082601f83011261094557600080fd5b813561095861095382610bfd565b610bd6565b9150808252602083016020830185838301111561097457600080fd5b61097f838284610c43565b50505092915050565b803561092e81610ca0565b6000602082840312156109a557600080fd5b60006109b18484610923565b949350505050565b600080600080600060a086880312156109d157600080fd5b853567ffffffffffffffff8111156109e857600080fd5b6109f488828901610934565b955050602086013567ffffffffffffffff811115610a1157600080fd5b610a1d88828901610934565b945050604086013567ffffffffffffffff811115610a3a57600080fd5b610a4688828901610934565b9350506060610a5788828901610988565b9250506080610a6888828901610923565b9150509295509295909350565b600060208284031215610a8757600080fd5b60006109b18484610988565b610a9c81610c32565b82525050565b6000610aad82610c25565b610ab78185610c29565b9350610ac7818560208601610c4f565b610ad081610c7f565b9093019392505050565b805160a080845260009190840190610af28282610aa2565b91505060208301518482036020860152610b0c8282610aa2565b91505060408301518482036040860152610b268282610aa2565b9150506060830151610b3b6060860182610b56565b506080830151610b4e6080860182610a93565b509392505050565b610a9c81610920565b60a08082528101610b708188610aa2565b90508181036020830152610b848187610aa2565b90508181036040830152610b988186610aa2565b9050610ba76060830185610b56565b610bb46080830184610a93565b9695505050505050565b60208082528101610bcf8184610ada565b9392505050565b60405181810167ffffffffffffffff81118282101715610bf557600080fd5b604052919050565b600067ffffffffffffffff821115610c1457600080fd5b506020601f91909101601f19160190565b5190565b90815260200190565b60006001600160a01b03821661092e565b82818337506000910152565b60005b83811015610c6a578181015183820152602001610c52565b83811115610c79576000848401525b50505050565b601f01601f191690565b610c9281610c32565b8114610c9d57600080fd5b50565b610c928161092056fea365627a7a723158202861777caebac01d4127cacfd111e425c6c86c20590021acb13247258fc720226c6578706572696d656e74616cf564736f6c63430005100040",
  "source": "pragma solidity ^0.5.16;\npragma experimental ABIEncoderV2;\n\ncontract Marketplace{\n\n    NFT[] public NFTlist;\n\n    mapping(address => NFT) totalNFT;\n\n    struct NFT{\n        string name;\n        string description;\n        string url;\n        uint256 price;\n        address owner;\n    }\n\n\n    // function getOwner(address add) public view returns(NFT memory nft){\n    //     return owners[add];\n    // }\n\n    function createNFT(string memory _name, string memory _description, string memory _url, uint256 _price, address _owner) public returns (NFT memory nft) {\n        NFTlist.push(NFT(_name, _description, _url, _price, _owner));\n        NFT memory newNFT = NFTlist[NFTlist.length - 1];\n        totalNFT[_owner] = newNFT;\n        return newNFT;\n    }\n\n    function getNFT(address _owner) public view returns(NFT memory nft){\n        return totalNFT[_owner];\n    }\n\n\n\n}\n",
  "sourcePath": "/home/astar/Documents/video-streaming/contracts/MarketPlace.sol",
  "compiler": {
    "name": "solc",
    "version": "0.5.16+commit.9c3226ce.Emscripten.clang"
  },
  "schemaVersion": "3.4.6",
  "updatedAt": "2022-03-22T19:47:50.725Z",
  "devdoc": {
    "methods": {}
  },
  "userdoc": {
    "methods": {}
  }
}