{
  "contractName": "MyStream",
  "abi": [
    {
      "constant": true,
      "inputs": [
        {
          "internalType": "address",
          "name": "",
          "type": "address"
        }
      ],
      "name": "followers",
      "outputs": [
        {
          "components": [
            {
              "internalType": "string",
              "name": "url",
              "type": "string"
            },
            {
              "internalType": "string",
              "name": "title",
              "type": "string"
            },
            {
              "internalType": "string",
              "name": "description",
              "type": "string"
            },
            {
              "internalType": "bool",
              "name": "isActive",
              "type": "bool"
            }
          ],
          "internalType": "struct MyStream.Stream",
          "name": "stream",
          "type": "tuple"
        },
        {
          "internalType": "string",
          "name": "name",
          "type": "string"
        },
        {
          "internalType": "string",
          "name": "avatar",
          "type": "string"
        }
      ],
      "payable": false,
      "stateMutability": "view",
      "type": "function"
    },
    {
      "constant": true,
      "inputs": [
        {
          "internalType": "address",
          "name": "",
          "type": "address"
        }
      ],
      "name": "following",
      "outputs": [
        {
          "components": [
            {
              "internalType": "string",
              "name": "url",
              "type": "string"
            },
            {
              "internalType": "string",
              "name": "title",
              "type": "string"
            },
            {
              "internalType": "string",
              "name": "description",
              "type": "string"
            },
            {
              "internalType": "bool",
              "name": "isActive",
              "type": "bool"
            }
          ],
          "internalType": "struct MyStream.Stream",
          "name": "stream",
          "type": "tuple"
        },
        {
          "internalType": "string",
          "name": "name",
          "type": "string"
        },
        {
          "internalType": "string",
          "name": "avatar",
          "type": "string"
        }
      ],
      "payable": false,
      "stateMutability": "view",
      "type": "function"
    },
    {
      "constant": true,
      "inputs": [
        {
          "internalType": "address",
          "name": "",
          "type": "address"
        }
      ],
      "name": "users",
      "outputs": [
        {
          "components": [
            {
              "internalType": "string",
              "name": "url",
              "type": "string"
            },
            {
              "internalType": "string",
              "name": "title",
              "type": "string"
            },
            {
              "internalType": "string",
              "name": "description",
              "type": "string"
            },
            {
              "internalType": "bool",
              "name": "isActive",
              "type": "bool"
            }
          ],
          "internalType": "struct MyStream.Stream",
          "name": "stream",
          "type": "tuple"
        },
        {
          "internalType": "string",
          "name": "name",
          "type": "string"
        },
        {
          "internalType": "string",
          "name": "avatar",
          "type": "string"
        }
      ],
      "payable": false,
      "stateMutability": "view",
      "type": "function"
    },
    {
      "constant": true,
      "inputs": [
        {
          "internalType": "address",
          "name": "_addr",
          "type": "address"
        }
      ],
      "name": "get",
      "outputs": [
        {
          "components": [
            {
              "components": [
                {
                  "internalType": "string",
                  "name": "url",
                  "type": "string"
                },
                {
                  "internalType": "string",
                  "name": "title",
                  "type": "string"
                },
                {
                  "internalType": "string",
                  "name": "description",
                  "type": "string"
                },
                {
                  "internalType": "bool",
                  "name": "isActive",
                  "type": "bool"
                }
              ],
              "internalType": "struct MyStream.Stream",
              "name": "stream",
              "type": "tuple"
            },
            {
              "internalType": "string",
              "name": "name",
              "type": "string"
            },
            {
              "internalType": "string",
              "name": "avatar",
              "type": "string"
            }
          ],
          "internalType": "struct MyStream.User",
          "name": "user",
          "type": "tuple"
        }
      ],
      "payable": false,
      "stateMutability": "view",
      "type": "function"
    },
    {
      "constant": false,
      "inputs": [
        {
          "internalType": "address",
          "name": "_addr",
          "type": "address"
        },
        {
          "components": [
            {
              "components": [
                {
                  "internalType": "string",
                  "name": "url",
                  "type": "string"
                },
                {
                  "internalType": "string",
                  "name": "title",
                  "type": "string"
                },
                {
                  "internalType": "string",
                  "name": "description",
                  "type": "string"
                },
                {
                  "internalType": "bool",
                  "name": "isActive",
                  "type": "bool"
                }
              ],
              "internalType": "struct MyStream.Stream",
              "name": "stream",
              "type": "tuple"
            },
            {
              "internalType": "string",
              "name": "name",
              "type": "string"
            },
            {
              "internalType": "string",
              "name": "avatar",
              "type": "string"
            }
          ],
          "internalType": "struct MyStream.User",
          "name": "_user",
          "type": "tuple"
        }
      ],
      "name": "set",
      "outputs": [],
      "payable": false,
      "stateMutability": "nonpayable",
      "type": "function"
    }
  ],
  "bytecode": "0x608060405234801561001057600080fd5b50610e71806100206000396000f3fe608060405234801561001057600080fd5b50600436106100575760003560e01c806374a5a41b1461005c57806395d955e214610087578063a87430ba1461009a578063c2bc2efc146100ad578063dde405fd146100cd575b600080fd5b61006f61006a366004610b82565b6100e2565b60405161007e93929190610cff565b60405180910390f35b61006f610095366004610b82565b6103f1565b61006f6100a8366004610b82565b610465565b6100c06100bb366004610b82565b6104da565b60405161007e9190610d38565b6100e06100db366004610ba8565b61080f565b005b60026020818152600092835260409283902083518154600181161561010002600019011693909304601f8101839004909202830160a090810190945260808301828152909384928492918491908401828280156101805780601f1061015557610100808354040283529160200191610180565b820191906000526020600020905b81548152906001019060200180831161016357829003601f168201915b50505050508152602001600182018054600181600116156101000203166002900480601f0160208091040260200160405190810160405280929190818152602001828054600181600116156101000203166002900480156102225780601f106101f757610100808354040283529160200191610222565b820191906000526020600020905b81548152906001019060200180831161020557829003601f168201915b5050509183525050600282810180546040805160206001841615610100026000190190931694909404601f810183900483028501830190915280845293810193908301828280156102b45780601f10610289576101008083540402835291602001916102b4565b820191906000526020600020905b81548152906001019060200180831161029757829003601f168201915b50505091835250506003919091015460ff16151560209182015260048301805460408051601f60026000196001861615610100020190941693909304928301859004850281018501909152818152939493928301828280156103575780601f1061032c57610100808354040283529160200191610357565b820191906000526020600020905b81548152906001019060200180831161033a57829003601f168201915b5050505060058301805460408051602060026001851615610100026000190190941693909304601f81018490048402820184019092528181529495949350908301828280156103e75780601f106103bc576101008083540402835291602001916103e7565b820191906000526020600020905b8154815290600101906020018083116103ca57829003601f168201915b5050505050905083565b6001602081815260009283526040928390208351815460029481161561010002600019011693909304601f8101839004909202830160a090810190945260808301828152909384928492918491908401828280156101805780601f1061015557610100808354040283529160200191610180565b600060208181529181526040908190208151815460026001821615610100026000190190911604601f8101859004909402810160a090810190935260808101848152919390928492849290918491908401828280156101805780601f1061015557610100808354040283529160200191610180565b6104e26108ce565b6001600160a01b0382166000908152602081815260409182902082518154600260018216156101009081026000190190921604601f81018590049094028201810190945260e081018381529093919284926060840192859284928491908701828280156105905780601f1061056557610100808354040283529160200191610590565b820191906000526020600020905b81548152906001019060200180831161057357829003601f168201915b50505050508152602001600182018054600181600116156101000203166002900480601f0160208091040260200160405190810160405280929190818152602001828054600181600116156101000203166002900480156106325780601f1061060757610100808354040283529160200191610632565b820191906000526020600020905b81548152906001019060200180831161061557829003601f168201915b5050509183525050600282810180546040805160206001841615610100026000190190931694909404601f810183900483028501830190915280845293810193908301828280156106c45780601f10610699576101008083540402835291602001916106c4565b820191906000526020600020905b8154815290600101906020018083116106a757829003601f168201915b50505091835250506003919091015460ff16151560209182015290825260048301805460408051601f60026000196001861615610100020190941693909304928301859004850281018501909152818152938301939283018282801561076b5780601f106107405761010080835404028352916020019161076b565b820191906000526020600020905b81548152906001019060200180831161074e57829003601f168201915b505050918352505060058201805460408051602060026001851615610100026000190190941693909304601f81018490048402820184019092528181529382019392918301828280156107ff5780601f106107d4576101008083540402835291602001916107ff565b820191906000526020600020905b8154815290600101906020018083116107e257829003601f168201915b5050505050815250509050919050565b6001600160a01b0382166000908152602081815260409091208251805180518594849261084292849291909101906108f5565b50602082810151805161085b92600185019201906108f5565b50604082015180516108779160028401916020909101906108f5565b50606091909101516003909101805460ff191691151591909117905560208281015180516108ab92600485019201906108f5565b50604082015180516108c79160058401916020909101906108f5565b5050505050565b60405180606001604052806108e1610973565b815260200160608152602001606081525090565b828054600181600116156101000203166002900490600052602060002090601f016020900481019282601f1061093657805160ff1916838001178555610963565b82800160010185558215610963579182015b82811115610963578251825591602001919060010190610948565b5061096f92915061099d565b5090565b60405180608001604052806060815260200160608152602001606081526020016000151581525090565b6109b791905b8082111561096f57600081556001016109a3565b90565b80356109c581610e0e565b92915050565b80356109c581610e25565b600082601f8301126109e757600080fd5b81356109fa6109f582610d77565b610d50565b91508082526020830160208301858383011115610a1657600080fd5b610a21838284610dc8565b50505092915050565b600060808284031215610a3c57600080fd5b610a466080610d50565b9050813567ffffffffffffffff811115610a5f57600080fd5b610a6b848285016109d6565b825250602082013567ffffffffffffffff811115610a8857600080fd5b610a94848285016109d6565b602083015250604082013567ffffffffffffffff811115610ab457600080fd5b610ac0848285016109d6565b6040830152506060610ad4848285016109cb565b60608301525092915050565b600060608284031215610af257600080fd5b610afc6060610d50565b9050813567ffffffffffffffff811115610b1557600080fd5b610b2184828501610a2a565b825250602082013567ffffffffffffffff811115610b3e57600080fd5b610b4a848285016109d6565b602083015250604082013567ffffffffffffffff811115610b6a57600080fd5b610b76848285016109d6565b60408301525092915050565b600060208284031215610b9457600080fd5b6000610ba084846109ba565b949350505050565b60008060408385031215610bbb57600080fd5b6000610bc785856109ba565b925050602083013567ffffffffffffffff811115610be457600080fd5b610bf085828601610ae0565b9150509250929050565b610c0381610db7565b82525050565b6000610c1482610d9f565b610c1e8185610da3565b9350610c2e818560208601610dd4565b610c3781610e04565b9093019392505050565b8051608080845260009190840190610c598282610c09565b91505060208301518482036020860152610c738282610c09565b91505060408301518482036040860152610c8d8282610c09565b9150506060830151610ca26060860182610bfa565b509392505050565b8051606080845260009190840190610cc28282610c41565b91505060208301518482036020860152610cdc8282610c09565b91505060408301518482036040860152610cf68282610c09565b95945050505050565b60608082528101610d108186610c41565b90508181036020830152610d248185610c09565b90508181036040830152610cf68184610c09565b60208082528101610d498184610caa565b9392505050565b60405181810167ffffffffffffffff81118282101715610d6f57600080fd5b604052919050565b600067ffffffffffffffff821115610d8e57600080fd5b506020601f91909101601f19160190565b5190565b90815260200190565b60006109c582610dbc565b151590565b6001600160a01b031690565b82818337506000910152565b60005b83811015610def578181015183820152602001610dd7565b83811115610dfe576000848401525b50505050565b601f01601f191690565b610e1781610dac565b8114610e2257600080fd5b50565b610e1781610db756fea365627a7a72315820d9213470f56e296b62273b2e2a00eab8ca2c602e525eeaac0d7d4aaed2dbead56c6578706572696d656e74616cf564736f6c63430005100040",
  "source": "pragma solidity ^0.5.16;\npragma experimental ABIEncoderV2;\n\ncontract MyStream {\n    mapping(address => User) public users;\n    mapping(address => User) public followers;\n    mapping(address => User) public following;\n\n    struct User {\n        Stream stream;\n        string name;\n        string avatar;\n    }\n\n    struct Stream {\n        string url;\n        string title;\n        string description;\n        bool isActive;\n    }\n\n    function get(address _addr) public view returns (User memory user) {\n        // Mapping always returns a value.\n        // If the value was never set, it will return the default value.\n        return users[_addr];\n    }\n\n    function set(address _addr, User memory _user) public {\n        // Update the value at this address\n        users[_addr] = _user;\n    }\n\n    //    Stream[] public streamList;\n    //\n    //    function create(string memory _title, string memory _description) public {\n    //        streamList.push(Stream(_title, _description));\n    //    }\n    //\n    //    // Solidity automatically created a getter for 'todos' so\n    //    // you don't actually need this function.\n    //    function get(uint _index) public view returns (string memory title, string memory description) {\n    //        Stream storage stream = streamList[_index];\n    //        return (stream.title, stream.description);\n    //    }\n    //\n    //    // update title and description\n    //    function update(uint _index, string memory _title, string memory _description) public {\n    //        Stream storage stream = streamList[_index];\n    //        stream.title = _title;\n    //        stream.description = _description;\n    //    }\n\n}\n",
  "sourcePath": "/Users/ravinderkumar/WebstormProjects/video-streaming/contracts/MyStream.sol",
  "compiler": {
    "name": "solc",
    "version": "0.5.16+commit.9c3226ce.Emscripten.clang"
  },
  "schemaVersion": "3.4.5",
  "updatedAt": "2022-03-16T18:49:03.609Z",
  "networkType": "ethereum",
  "devdoc": {
    "methods": {}
  },
  "userdoc": {
    "methods": {}
  }
}